{
  "contractName": "MyNFT",
  "abi": [
    {
      "inputs": [],
      "stateMutability": "nonpayable",
      "type": "constructor"
    },
    {
      "anonymous": false,
      "inputs": [
        {
          "indexed": true,
          "internalType": "address",
          "name": "owner",
          "type": "address"
        },
        {
          "indexed": true,
          "internalType": "address",
          "name": "approved",
          "type": "address"
        },
        {
          "indexed": true,
          "internalType": "uint256",
          "name": "tokenId",
          "type": "uint256"
        }
      ],
      "name": "Approval",
      "type": "event"
    },
    {
      "anonymous": false,
      "inputs": [
        {
          "indexed": true,
          "internalType": "address",
          "name": "owner",
          "type": "address"
        },
        {
          "indexed": true,
          "internalType": "address",
          "name": "operator",
          "type": "address"
        },
        {
          "indexed": false,
          "internalType": "bool",
          "name": "approved",
          "type": "bool"
        }
      ],
      "name": "ApprovalForAll",
      "type": "event"
    },
    {
      "anonymous": false,
      "inputs": [
        {
          "indexed": true,
          "internalType": "address",
          "name": "previousOwner",
          "type": "address"
        },
        {
          "indexed": true,
          "internalType": "address",
          "name": "newOwner",
          "type": "address"
        }
      ],
      "name": "OwnershipTransferred",
      "type": "event"
    },
    {
      "anonymous": false,
      "inputs": [
        {
          "indexed": false,
          "internalType": "address",
          "name": "account",
          "type": "address"
        }
      ],
      "name": "Paused",
      "type": "event"
    },
    {
      "anonymous": false,
      "inputs": [
        {
          "indexed": true,
          "internalType": "address",
          "name": "from",
          "type": "address"
        },
        {
          "indexed": true,
          "internalType": "address",
          "name": "to",
          "type": "address"
        },
        {
          "indexed": true,
          "internalType": "uint256",
          "name": "tokenId",
          "type": "uint256"
        }
      ],
      "name": "Transfer",
      "type": "event"
    },
    {
      "anonymous": false,
      "inputs": [
        {
          "indexed": false,
          "internalType": "address",
          "name": "account",
          "type": "address"
        }
      ],
      "name": "Unpaused",
      "type": "event"
    },
    {
      "anonymous": false,
      "inputs": [],
      "name": "UriChanged",
      "type": "event"
    },
    {
      "inputs": [
        {
          "internalType": "address",
          "name": "to",
          "type": "address"
        },
        {
          "internalType": "uint256",
          "name": "tokenId",
          "type": "uint256"
        }
      ],
      "name": "approve",
      "outputs": [],
      "stateMutability": "nonpayable",
      "type": "function"
    },
    {
      "inputs": [
        {
          "internalType": "address",
          "name": "owner",
          "type": "address"
        }
      ],
      "name": "balanceOf",
      "outputs": [
        {
          "internalType": "uint256",
          "name": "",
          "type": "uint256"
        }
      ],
      "stateMutability": "view",
      "type": "function",
      "constant": true
    },
    {
      "inputs": [
        {
          "internalType": "uint256",
          "name": "tokenId",
          "type": "uint256"
        }
      ],
      "name": "burn",
      "outputs": [],
      "stateMutability": "nonpayable",
      "type": "function"
    },
    {
      "inputs": [
        {
          "internalType": "uint256",
          "name": "tokenId",
          "type": "uint256"
        }
      ],
      "name": "getApproved",
      "outputs": [
        {
          "internalType": "address",
          "name": "",
          "type": "address"
        }
      ],
      "stateMutability": "view",
      "type": "function",
      "constant": true
    },
    {
      "inputs": [
        {
          "internalType": "address",
          "name": "owner",
          "type": "address"
        },
        {
          "internalType": "address",
          "name": "operator",
          "type": "address"
        }
      ],
      "name": "isApprovedForAll",
      "outputs": [
        {
          "internalType": "bool",
          "name": "",
          "type": "bool"
        }
      ],
      "stateMutability": "view",
      "type": "function",
      "constant": true
    },
    {
      "inputs": [],
      "name": "name",
      "outputs": [
        {
          "internalType": "string",
          "name": "",
          "type": "string"
        }
      ],
      "stateMutability": "view",
      "type": "function",
      "constant": true
    },
    {
      "inputs": [],
      "name": "owner",
      "outputs": [
        {
          "internalType": "address",
          "name": "",
          "type": "address"
        }
      ],
      "stateMutability": "view",
      "type": "function",
      "constant": true
    },
    {
      "inputs": [
        {
          "internalType": "uint256",
          "name": "tokenId",
          "type": "uint256"
        }
      ],
      "name": "ownerOf",
      "outputs": [
        {
          "internalType": "address",
          "name": "",
          "type": "address"
        }
      ],
      "stateMutability": "view",
      "type": "function",
      "constant": true
    },
    {
      "inputs": [],
      "name": "paused",
      "outputs": [
        {
          "internalType": "bool",
          "name": "",
          "type": "bool"
        }
      ],
      "stateMutability": "view",
      "type": "function",
      "constant": true
    },
    {
      "inputs": [],
      "name": "renounceOwnership",
      "outputs": [],
      "stateMutability": "nonpayable",
      "type": "function"
    },
    {
      "inputs": [
        {
          "internalType": "address",
          "name": "from",
          "type": "address"
        },
        {
          "internalType": "address",
          "name": "to",
          "type": "address"
        },
        {
          "internalType": "uint256",
          "name": "tokenId",
          "type": "uint256"
        }
      ],
      "name": "safeTransferFrom",
      "outputs": [],
      "stateMutability": "nonpayable",
      "type": "function"
    },
    {
      "inputs": [
        {
          "internalType": "address",
          "name": "from",
          "type": "address"
        },
        {
          "internalType": "address",
          "name": "to",
          "type": "address"
        },
        {
          "internalType": "uint256",
          "name": "tokenId",
          "type": "uint256"
        },
        {
          "internalType": "bytes",
          "name": "_data",
          "type": "bytes"
        }
      ],
      "name": "safeTransferFrom",
      "outputs": [],
      "stateMutability": "nonpayable",
      "type": "function"
    },
    {
      "inputs": [
        {
          "internalType": "address",
          "name": "operator",
          "type": "address"
        },
        {
          "internalType": "bool",
          "name": "approved",
          "type": "bool"
        }
      ],
      "name": "setApprovalForAll",
      "outputs": [],
      "stateMutability": "nonpayable",
      "type": "function"
    },
    {
      "inputs": [],
      "name": "symbol",
      "outputs": [
        {
          "internalType": "string",
          "name": "",
          "type": "string"
        }
      ],
      "stateMutability": "view",
      "type": "function",
      "constant": true
    },
    {
      "inputs": [
        {
          "internalType": "uint256",
          "name": "index",
          "type": "uint256"
        }
      ],
      "name": "tokenByIndex",
      "outputs": [
        {
          "internalType": "uint256",
          "name": "",
          "type": "uint256"
        }
      ],
      "stateMutability": "view",
      "type": "function",
      "constant": true
    },
    {
      "inputs": [
        {
          "internalType": "address",
          "name": "owner",
          "type": "address"
        },
        {
          "internalType": "uint256",
          "name": "index",
          "type": "uint256"
        }
      ],
      "name": "tokenOfOwnerByIndex",
      "outputs": [
        {
          "internalType": "uint256",
          "name": "",
          "type": "uint256"
        }
      ],
      "stateMutability": "view",
      "type": "function",
      "constant": true
    },
    {
      "inputs": [],
      "name": "totalSupply",
      "outputs": [
        {
          "internalType": "uint256",
          "name": "",
          "type": "uint256"
        }
      ],
      "stateMutability": "view",
      "type": "function",
      "constant": true
    },
    {
      "inputs": [
        {
          "internalType": "address",
          "name": "from",
          "type": "address"
        },
        {
          "internalType": "address",
          "name": "to",
          "type": "address"
        },
        {
          "internalType": "uint256",
          "name": "tokenId",
          "type": "uint256"
        }
      ],
      "name": "transferFrom",
      "outputs": [],
      "stateMutability": "nonpayable",
      "type": "function"
    },
    {
      "inputs": [
        {
          "internalType": "address",
          "name": "newOwner",
          "type": "address"
        }
      ],
      "name": "transferOwnership",
      "outputs": [],
      "stateMutability": "nonpayable",
      "type": "function"
    },
    {
      "inputs": [
        {
          "internalType": "string",
          "name": "name",
          "type": "string"
        },
        {
          "internalType": "string",
          "name": "symbol",
          "type": "string"
        },
        {
          "internalType": "string",
          "name": "baseTokenURI",
          "type": "string"
        },
        {
          "internalType": "uint256",
          "name": "maxTokenSupply",
          "type": "uint256"
        },
        {
          "internalType": "uint256",
          "name": "tokenPrice",
          "type": "uint256"
        }
      ],
      "name": "initialize",
      "outputs": [],
      "stateMutability": "nonpayable",
      "type": "function"
    },
    {
      "inputs": [],
      "name": "safeMint",
      "outputs": [],
      "stateMutability": "payable",
      "type": "function",
      "payable": true
    },
    {
      "inputs": [
        {
          "internalType": "address",
          "name": "_owner",
          "type": "address"
        }
      ],
      "name": "tokensOfOwner",
      "outputs": [
        {
          "internalType": "uint256[]",
          "name": "ownerTokens",
          "type": "uint256[]"
        }
      ],
      "stateMutability": "view",
      "type": "function",
      "constant": true
    },
    {
      "inputs": [
        {
          "internalType": "bool",
          "name": "isActive",
          "type": "bool"
        }
      ],
      "name": "setSaleActive",
      "outputs": [],
      "stateMutability": "nonpayable",
      "type": "function"
    },
    {
      "inputs": [
        {
          "internalType": "string",
          "name": "newBaseTokenURI",
          "type": "string"
        }
      ],
      "name": "setBaseURI",
      "outputs": [],
      "stateMutability": "nonpayable",
      "type": "function"
    },
    {
      "inputs": [],
      "name": "pause",
      "outputs": [],
      "stateMutability": "nonpayable",
      "type": "function"
    },
    {
      "inputs": [],
      "name": "unpause",
      "outputs": [],
      "stateMutability": "nonpayable",
      "type": "function"
    },
    {
      "inputs": [
        {
          "internalType": "uint256",
          "name": "tokenId",
          "type": "uint256"
        }
      ],
      "name": "tokenURI",
      "outputs": [
        {
          "internalType": "string",
          "name": "",
          "type": "string"
        }
      ],
      "stateMutability": "view",
      "type": "function",
      "constant": true
    },
    {
      "inputs": [
        {
          "internalType": "bytes4",
          "name": "interfaceId",
          "type": "bytes4"
        }
      ],
      "name": "supportsInterface",
      "outputs": [
        {
          "internalType": "bool",
          "name": "",
          "type": "bool"
        }
      ],
      "stateMutability": "view",
      "type": "function",
      "constant": true
    },
    {
      "inputs": [],
      "name": "isSaleActive",
      "outputs": [
        {
          "internalType": "bool",
          "name": "",
          "type": "bool"
        }
      ],
      "stateMutability": "view",
      "type": "function",
      "constant": true
    },
    {
      "inputs": [],
      "name": "pricePerToken",
      "outputs": [
        {
          "internalType": "uint256",
          "name": "",
          "type": "uint256"
        }
      ],
      "stateMutability": "view",
      "type": "function",
      "constant": true
    },
    {
      "inputs": [],
      "name": "maxSupply",
      "outputs": [
        {
          "internalType": "uint256",
          "name": "",
          "type": "uint256"
        }
      ],
      "stateMutability": "view",
      "type": "function",
      "constant": true
    },
    {
      "inputs": [],
      "name": "baseURI",
      "outputs": [
        {
          "internalType": "string",
          "name": "",
          "type": "string"
        }
      ],
      "stateMutability": "view",
      "type": "function",
      "constant": true
    }
  ],
  "bytecode": "0x60806040523480156200001157600080fd5b50600054610100900460ff166200002f5760005460ff161562000033565b303b155b6200009b5760405162461bcd60e51b815260206004820152602e60248201527f496e697469616c697a61626c653a20636f6e747261637420697320616c72656160448201526d191e481a5b9a5d1a585b1a5e995960921b606482015260840160405180910390fd5b600054610100900460ff16158015620000be576000805461ffff19166101011790555b8015620000d1576000805461ff00191690555b50612f4580620000e26000396000f3fe6080604052600436106101e35760003560e01c80636c0360eb116101025780638da5cb5b11610095578063c87b56dd11610064578063c87b56dd1461053c578063d5abeb011461055c578063e985e9c514610572578063f2fde38b146105bb57600080fd5b80638da5cb5b146104c857806395d89b41146104e7578063a22cb465146104fc578063b88d4fde1461051c57600080fd5b806380ddd09f116100d157806380ddd09f14610446578063841718a6146104665780638456cb59146104865780638462151c1461049b57600080fd5b80636c0360eb146103e657806370a08231146103fb578063715018a61461041b5780637b1b1de61461043057600080fd5b806342842e0e1161017a578063564566a811610149578063564566a81461038d5780635c975abb146103a65780636352211e146103be5780636871ee40146103de57600080fd5b806342842e0e1461030d57806342966c681461032d5780634f6ccce71461034d57806355f804b31461036d57600080fd5b806318160ddd116101b657806318160ddd1461029957806323b872dd146102b85780632f745c59146102d85780633f4ba83a146102f857600080fd5b806301ffc9a7146101e857806306fdde031461021d578063081812fc1461023f578063095ea7b314610277575b600080fd5b3480156101f457600080fd5b50610208610203366004612895565b6105db565b60405190151581526020015b60405180910390f35b34801561022957600080fd5b506102326105ec565b6040516102149190612902565b34801561024b57600080fd5b5061025f61025a366004612915565b61067e565b6040516001600160a01b039091168152602001610214565b34801561028357600080fd5b5061029761029236600461294a565b610718565b005b3480156102a557600080fd5b506099545b604051908152602001610214565b3480156102c457600080fd5b506102976102d3366004612974565b610849565b3480156102e457600080fd5b506102aa6102f336600461294a565b6108d1565b34801561030457600080fd5b50610297610979565b34801561031957600080fd5b50610297610328366004612974565b6109de565b34801561033957600080fd5b50610297610348366004612915565b6109f9565b34801561035957600080fd5b506102aa610368366004612915565b610a80565b34801561037957600080fd5b50610297610388366004612a5c565b610b24565b34801561039957600080fd5b506101925460ff16610208565b3480156103b257600080fd5b5060fb5460ff16610208565b3480156103ca57600080fd5b5061025f6103d9366004612915565b610bb9565b610297610c44565b3480156103f257600080fd5b50610232610d95565b34801561040757600080fd5b506102aa610416366004612a91565b610da5565b34801561042757600080fd5b50610297610e3f565b34801561043c57600080fd5b50610193546102aa565b34801561045257600080fd5b50610297610461366004612aac565b610ea4565b34801561047257600080fd5b50610297610481366004612b56565b610fcb565b34801561049257600080fd5b5061029761103a565b3480156104a757600080fd5b506104bb6104b6366004612a91565b61109d565b6040516102149190612b71565b3480156104d457600080fd5b5061012d546001600160a01b031661025f565b3480156104f357600080fd5b50610232611174565b34801561050857600080fd5b50610297610517366004612bb5565b611183565b34801561052857600080fd5b50610297610537366004612be8565b611192565b34801561054857600080fd5b50610232610557366004612915565b611220565b34801561056857600080fd5b50610194546102aa565b34801561057e57600080fd5b5061020861058d366004612c64565b6001600160a01b039182166000908152606a6020908152604080832093909416825291909152205460ff1690565b3480156105c757600080fd5b506102976105d6366004612a91565b61122b565b60006105e68261130b565b92915050565b6060606580546105fb90612c8e565b80601f016020809104026020016040519081016040528092919081815260200182805461062790612c8e565b80156106745780601f1061064957610100808354040283529160200191610674565b820191906000526020600020905b81548152906001019060200180831161065757829003601f168201915b5050505050905090565b6000818152606760205260408120546001600160a01b03166106fc5760405162461bcd60e51b815260206004820152602c60248201527f4552433732313a20617070726f76656420717565727920666f72206e6f6e657860448201526b34b9ba32b73a103a37b5b2b760a11b60648201526084015b60405180910390fd5b506000908152606960205260409020546001600160a01b031690565b600061072382610bb9565b9050806001600160a01b0316836001600160a01b0316036107ac5760405162461bcd60e51b815260206004820152602160248201527f4552433732313a20617070726f76616c20746f2063757272656e74206f776e6560448201527f720000000000000000000000000000000000000000000000000000000000000060648201526084016106f3565b336001600160a01b03821614806107c857506107c8813361058d565b61083a5760405162461bcd60e51b815260206004820152603860248201527f4552433732313a20617070726f76652063616c6c6572206973206e6f74206f7760448201527f6e6572206e6f7220617070726f76656420666f7220616c6c000000000000000060648201526084016106f3565b6108448383611349565b505050565b610854335b826113b7565b6108c65760405162461bcd60e51b815260206004820152603160248201527f4552433732313a207472616e736665722063616c6c6572206973206e6f74206f60448201527f776e6572206e6f7220617070726f76656400000000000000000000000000000060648201526084016106f3565b6108448383836114ae565b60006108dc83610da5565b82106109505760405162461bcd60e51b815260206004820152602b60248201527f455243373231456e756d657261626c653a206f776e657220696e646578206f7560448201527f74206f6620626f756e647300000000000000000000000000000000000000000060648201526084016106f3565b506001600160a01b03919091166000908152609760209081526040808320938352929052205490565b61012d546001600160a01b031633146109d45760405162461bcd60e51b815260206004820181905260248201527f4f776e61626c653a2063616c6c6572206973206e6f7420746865206f776e657260448201526064016106f3565b6109dc611686565b565b61084483838360405180602001604052806000815250611192565b610a023361084e565b610a745760405162461bcd60e51b815260206004820152603060248201527f4552433732314275726e61626c653a2063616c6c6572206973206e6f74206f7760448201527f6e6572206e6f7220617070726f7665640000000000000000000000000000000060648201526084016106f3565b610a7d81611722565b50565b6000610a8b60995490565b8210610aff5760405162461bcd60e51b815260206004820152602c60248201527f455243373231456e756d657261626c653a20676c6f62616c20696e646578206f60448201527f7574206f6620626f756e6473000000000000000000000000000000000000000060648201526084016106f3565b60998281548110610b1257610b12612cc2565b90600052602060002001549050919050565b61012d546001600160a01b03163314610b7f5760405162461bcd60e51b815260206004820181905260248201527f4f776e61626c653a2063616c6c6572206973206e6f7420746865206f776e657260448201526064016106f3565b610195610b8c8282612d1e565b506040517fc20fc16a841df46e2f670ae554047dbc09e2955d620062501289021c445917a190600090a150565b6000818152606760205260408120546001600160a01b0316806105e65760405162461bcd60e51b815260206004820152602960248201527f4552433732313a206f776e657220717565727920666f72206e6f6e657869737460448201527f656e7420746f6b656e000000000000000000000000000000000000000000000060648201526084016106f3565b6000610c506101915490565b6101925490915060ff16610ca65760405162461bcd60e51b815260206004820152601f60248201527f53616c65206d7573742062652061637469766520746f206d696e74204e46540060448201526064016106f3565b61019454610cb582600161172b565b1115610d295760405162461bcd60e51b815260206004820152602860248201527f507572636861736520776f756c6420657863656564206d617820737570706c7960448201527f206f66204e46547300000000000000000000000000000000000000000000000060648201526084016106f3565b34610193541115610d7c5760405162461bcd60e51b815260206004820152601f60248201527f45746865722076616c75652073656e74206973206e6f7420636f72726563740060448201526064016106f3565b610d8b61019180546001019055565b610a7d338261173e565b606061019580546105fb90612c8e565b60006001600160a01b038216610e235760405162461bcd60e51b815260206004820152602a60248201527f4552433732313a2062616c616e636520717565727920666f7220746865207a6560448201527f726f20616464726573730000000000000000000000000000000000000000000060648201526084016106f3565b506001600160a01b031660009081526068602052604090205490565b61012d546001600160a01b03163314610e9a5760405162461bcd60e51b815260206004820181905260248201527f4f776e61626c653a2063616c6c6572206973206e6f7420746865206f776e657260448201526064016106f3565b6109dc6000611758565b600054610100900460ff16610ebf5760005460ff1615610ec3565b303b155b610f355760405162461bcd60e51b815260206004820152602e60248201527f496e697469616c697a61626c653a20636f6e747261637420697320616c72656160448201527f647920696e697469616c697a656400000000000000000000000000000000000060648201526084016106f3565b600054610100900460ff16158015610f57576000805461ffff19166101011790555b610f6186866117ab565b610f69611830565b610f71611830565b610f796118b3565b610f8161192e565b610f89611830565b610192805460ff19166001179055610195610fa48582612d1e565b506101948390556101938290558015610fc3576000805461ff00191690555b505050505050565b61012d546001600160a01b031633146110265760405162461bcd60e51b815260206004820181905260248201527f4f776e61626c653a2063616c6c6572206973206e6f7420746865206f776e657260448201526064016106f3565b610192805460ff1916911515919091179055565b61012d546001600160a01b031633146110955760405162461bcd60e51b815260206004820181905260248201527f4f776e61626c653a2063616c6c6572206973206e6f7420746865206f776e657260448201526064016106f3565b6109dc6119a9565b606060006110aa83610da5565b9050806000036110ca575050604080516000815260208101909152919050565b60008167ffffffffffffffff8111156110e5576110e56129b0565b60405190808252806020026020018201604052801561110e578160200160208202803683370190505b5090506000805b838110156111645761112786826108d1565b83838151811061113957611139612cc2565b60209081029190910101528161114e81612df4565b925050808061115c90612df4565b915050611115565b5090949350505050565b50919050565b6060606680546105fb90612c8e565b61118e338383611a31565b5050565b61119c33836113b7565b61120e5760405162461bcd60e51b815260206004820152603160248201527f4552433732313a207472616e736665722063616c6c6572206973206e6f74206f60448201527f776e6572206e6f7220617070726f76656400000000000000000000000000000060648201526084016106f3565b61121a84848484611aff565b50505050565b60606105e682611b7d565b61012d546001600160a01b031633146112865760405162461bcd60e51b815260206004820181905260248201527f4f776e61626c653a2063616c6c6572206973206e6f7420746865206f776e657260448201526064016106f3565b6001600160a01b0381166113025760405162461bcd60e51b815260206004820152602660248201527f4f776e61626c653a206e6577206f776e657220697320746865207a65726f206160448201527f646472657373000000000000000000000000000000000000000000000000000060648201526084016106f3565b610a7d81611758565b60006001600160e01b031982167f780e9d630000000000000000000000000000000000000000000000000000000014806105e657506105e682611cfa565b600081815260696020526040902080546001600160a01b0319166001600160a01b038416908117909155819061137e82610bb9565b6001600160a01b03167f8c5be1e5ebec7d5bd14f71427d1e84f3dd0314c0f7b2291e5b200ac8c7c3b92560405160405180910390a45050565b6000818152606760205260408120546001600160a01b03166114305760405162461bcd60e51b815260206004820152602c60248201527f4552433732313a206f70657261746f7220717565727920666f72206e6f6e657860448201526b34b9ba32b73a103a37b5b2b760a11b60648201526084016106f3565b600061143b83610bb9565b9050806001600160a01b0316846001600160a01b031614806114765750836001600160a01b031661146b8461067e565b6001600160a01b0316145b806114a657506001600160a01b038082166000908152606a602090815260408083209388168352929052205460ff165b949350505050565b826001600160a01b03166114c182610bb9565b6001600160a01b03161461153d5760405162461bcd60e51b815260206004820152602960248201527f4552433732313a207472616e73666572206f6620746f6b656e2074686174206960448201527f73206e6f74206f776e000000000000000000000000000000000000000000000060648201526084016106f3565b6001600160a01b0382166115b85760405162461bcd60e51b8152602060048201526024808201527f4552433732313a207472616e7366657220746f20746865207a65726f2061646460448201527f726573730000000000000000000000000000000000000000000000000000000060648201526084016106f3565b6115c3838383611d95565b6115ce600082611349565b6001600160a01b03831660009081526068602052604081208054600192906115f7908490612e0d565b90915550506001600160a01b0382166000908152606860205260408120805460019290611625908490612e20565b909155505060008181526067602052604080822080546001600160a01b0319166001600160a01b0386811691821790925591518493918716917fddf252ad1be2c89b69c2b068fc378daa952ba7f163c4a11628f55a4df523b3ef91a4505050565b60fb5460ff166116d85760405162461bcd60e51b815260206004820152601460248201527f5061757361626c653a206e6f742070617573656400000000000000000000000060448201526064016106f3565b60fb805460ff191690557f5db9ee0a495bf2e6ff9c91a7834c1ba4fdd244a5e8aa4e537bd38aeae4b073aa335b6040516001600160a01b03909116815260200160405180910390a1565b610a7d81611df3565b60006117378284612e20565b9392505050565b61118e828260405180602001604052806000815250611e33565b61012d80546001600160a01b038381166001600160a01b0319831681179093556040519116919082907f8be0079c531659141344cd1fd0a4f28419497f9722a3daafe3b4186f6b6457e090600090a35050565b600054610100900460ff166118165760405162461bcd60e51b815260206004820152602b60248201527f496e697469616c697a61626c653a20636f6e7472616374206973206e6f74206960448201526a6e697469616c697a696e6760a81b60648201526084016106f3565b61181e611eb1565b611826611eb1565b61118e8282611f1c565b600054610100900460ff1661189b5760405162461bcd60e51b815260206004820152602b60248201527f496e697469616c697a61626c653a20636f6e7472616374206973206e6f74206960448201526a6e697469616c697a696e6760a81b60648201526084016106f3565b6118a3611eb1565b6118ab611eb1565b6109dc611eb1565b600054610100900460ff1661191e5760405162461bcd60e51b815260206004820152602b60248201527f496e697469616c697a61626c653a20636f6e7472616374206973206e6f74206960448201526a6e697469616c697a696e6760a81b60648201526084016106f3565b611926611eb1565b6109dc611fa0565b600054610100900460ff166119995760405162461bcd60e51b815260206004820152602b60248201527f496e697469616c697a61626c653a20636f6e7472616374206973206e6f74206960448201526a6e697469616c697a696e6760a81b60648201526084016106f3565b6119a1611eb1565b6109dc612017565b60fb5460ff16156119fc5760405162461bcd60e51b815260206004820152601060248201527f5061757361626c653a207061757365640000000000000000000000000000000060448201526064016106f3565b60fb805460ff191660011790557f62e78cea01bee320cd4e420270b5ea74000d11b0c9f74754ebdbfc544b05a2586117053390565b816001600160a01b0316836001600160a01b031603611a925760405162461bcd60e51b815260206004820152601960248201527f4552433732313a20617070726f766520746f2063616c6c65720000000000000060448201526064016106f3565b6001600160a01b038381166000818152606a6020908152604080832094871680845294825291829020805460ff191686151590811790915591519182527f17307eab39ab6107e8899845ad3d59bd9653f200f220920489ca2b5937696c31910160405180910390a3505050565b611b0a8484846114ae565b611b168484848461208b565b61121a5760405162461bcd60e51b815260206004820152603260248201527f4552433732313a207472616e7366657220746f206e6f6e20455243373231526560448201527131b2b4bb32b91034b6b83632b6b2b73a32b960711b60648201526084016106f3565b6000818152606760205260409020546060906001600160a01b0316611c0a5760405162461bcd60e51b815260206004820152603160248201527f45524337323155524953746f726167653a2055524920717565727920666f722060448201527f6e6f6e6578697374656e7420746f6b656e00000000000000000000000000000060648201526084016106f3565b600082815260c9602052604081208054611c2390612c8e565b80601f0160208091040260200160405190810160405280929190818152602001828054611c4f90612c8e565b8015611c9c5780601f10611c7157610100808354040283529160200191611c9c565b820191906000526020600020905b815481529060010190602001808311611c7f57829003601f168201915b505050505090506000611cad610d95565b90508051600003611cbf575092915050565b815115611cf1578082604051602001611cd9929190612e33565b60405160208183030381529060405292505050919050565b6114a6846121d7565b60006001600160e01b031982167f80ac58cd000000000000000000000000000000000000000000000000000000001480611d5d57506001600160e01b031982167f5b5e139f00000000000000000000000000000000000000000000000000000000145b806105e657507f01ffc9a7000000000000000000000000000000000000000000000000000000006001600160e01b03198316146105e6565b60fb5460ff1615611de85760405162461bcd60e51b815260206004820152601060248201527f5061757361626c653a207061757365640000000000000000000000000000000060448201526064016106f3565b6108448383836122bf565b611dfc81612377565b600081815260c9602052604090208054611e1590612c8e565b159050610a7d57600081815260c960205260408120610a7d91612831565b611e3d838361241e565b611e4a600084848461208b565b6108445760405162461bcd60e51b815260206004820152603260248201527f4552433732313a207472616e7366657220746f206e6f6e20455243373231526560448201527131b2b4bb32b91034b6b83632b6b2b73a32b960711b60648201526084016106f3565b600054610100900460ff166109dc5760405162461bcd60e51b815260206004820152602b60248201527f496e697469616c697a61626c653a20636f6e7472616374206973206e6f74206960448201526a6e697469616c697a696e6760a81b60648201526084016106f3565b600054610100900460ff16611f875760405162461bcd60e51b815260206004820152602b60248201527f496e697469616c697a61626c653a20636f6e7472616374206973206e6f74206960448201526a6e697469616c697a696e6760a81b60648201526084016106f3565b6065611f938382612d1e565b5060666108448282612d1e565b600054610100900460ff1661200b5760405162461bcd60e51b815260206004820152602b60248201527f496e697469616c697a61626c653a20636f6e7472616374206973206e6f74206960448201526a6e697469616c697a696e6760a81b60648201526084016106f3565b60fb805460ff19169055565b600054610100900460ff166120825760405162461bcd60e51b815260206004820152602b60248201527f496e697469616c697a61626c653a20636f6e7472616374206973206e6f74206960448201526a6e697469616c697a696e6760a81b60648201526084016106f3565b6109dc33611758565b60006001600160a01b0384163b156121cc57604051630a85bd0160e11b81526001600160a01b0385169063150b7a02906120cf903390899088908890600401612e62565b6020604051808303816000875af192505050801561210a575060408051601f3d908101601f1916820190925261210791810190612e9e565b60015b6121b2573d808015612138576040519150601f19603f3d011682016040523d82523d6000602084013e61213d565b606091505b5080516000036121aa5760405162461bcd60e51b815260206004820152603260248201527f4552433732313a207472616e7366657220746f206e6f6e20455243373231526560448201527131b2b4bb32b91034b6b83632b6b2b73a32b960711b60648201526084016106f3565b805181602001fd5b6001600160e01b031916630a85bd0160e11b1490506114a6565b506001949350505050565b6000818152606760205260409020546060906001600160a01b03166122645760405162461bcd60e51b815260206004820152602f60248201527f4552433732314d657461646174613a2055524920717565727920666f72206e6f60448201527f6e6578697374656e7420746f6b656e000000000000000000000000000000000060648201526084016106f3565b600061226e610d95565b9050600081511161228e5760405180602001604052806000815250611737565b806122988461256c565b6040516020016122a9929190612e33565b6040516020818303038152906040529392505050565b6001600160a01b03831661231a5761231581609980546000838152609a60205260408120829055600182018355919091527f72a152ddfb8e864297c917af52ea6c1c68aead0fee1a62673fcc7e0c94979d000155565b61233d565b816001600160a01b0316836001600160a01b03161461233d5761233d83826126a1565b6001600160a01b038216612354576108448161273e565b826001600160a01b0316826001600160a01b0316146108445761084482826127ed565b600061238282610bb9565b905061239081600084611d95565b61239b600083611349565b6001600160a01b03811660009081526068602052604081208054600192906123c4908490612e0d565b909155505060008281526067602052604080822080546001600160a01b0319169055518391906001600160a01b038416907fddf252ad1be2c89b69c2b068fc378daa952ba7f163c4a11628f55a4df523b3ef908390a45050565b6001600160a01b0382166124745760405162461bcd60e51b815260206004820181905260248201527f4552433732313a206d696e7420746f20746865207a65726f206164647265737360448201526064016106f3565b6000818152606760205260409020546001600160a01b0316156124d95760405162461bcd60e51b815260206004820152601c60248201527f4552433732313a20746f6b656e20616c7265616479206d696e7465640000000060448201526064016106f3565b6124e560008383611d95565b6001600160a01b038216600090815260686020526040812080546001929061250e908490612e20565b909155505060008181526067602052604080822080546001600160a01b0319166001600160a01b03861690811790915590518392907fddf252ad1be2c89b69c2b068fc378daa952ba7f163c4a11628f55a4df523b3ef908290a45050565b6060816000036125af57505060408051808201909152600181527f3000000000000000000000000000000000000000000000000000000000000000602082015290565b8160005b81156125d957806125c381612df4565b91506125d29050600a83612ed1565b91506125b3565b60008167ffffffffffffffff8111156125f4576125f46129b0565b6040519080825280601f01601f19166020018201604052801561261e576020820181803683370190505b5090505b84156114a657612633600183612e0d565b9150612640600a86612ee5565b61264b906030612e20565b60f81b81838151811061266057612660612cc2565b60200101907effffffffffffffffffffffffffffffffffffffffffffffffffffffffffffff1916908160001a90535061269a600a86612ed1565b9450612622565b600060016126ae84610da5565b6126b89190612e0d565b60008381526098602052604090205490915080821461270b576001600160a01b03841660009081526097602090815260408083208584528252808320548484528184208190558352609890915290208190555b5060009182526098602090815260408084208490556001600160a01b039094168352609781528383209183525290812055565b60995460009061275090600190612e0d565b6000838152609a60205260408120546099805493945090928490811061277857612778612cc2565b90600052602060002001549050806099838154811061279957612799612cc2565b6000918252602080832090910192909255828152609a909152604080822084905585825281205560998054806127d1576127d1612ef9565b6001900381819060005260206000200160009055905550505050565b60006127f883610da5565b6001600160a01b039093166000908152609760209081526040808320868452825280832085905593825260989052919091209190915550565b50805461283d90612c8e565b6000825580601f1061284d575050565b601f016020900490600052602060002090810190610a7d91905b8082111561287b5760008155600101612867565b5090565b6001600160e01b031981168114610a7d57600080fd5b6000602082840312156128a757600080fd5b81356117378161287f565b60005b838110156128cd5781810151838201526020016128b5565b50506000910152565b600081518084526128ee8160208601602086016128b2565b601f01601f19169290920160200192915050565b60208152600061173760208301846128d6565b60006020828403121561292757600080fd5b5035919050565b80356001600160a01b038116811461294557600080fd5b919050565b6000806040838503121561295d57600080fd5b6129668361292e565b946020939093013593505050565b60008060006060848603121561298957600080fd5b6129928461292e565b92506129a06020850161292e565b9150604084013590509250925092565b634e487b7160e01b600052604160045260246000fd5b600067ffffffffffffffff808411156129e1576129e16129b0565b604051601f8501601f19908116603f01168101908282118183101715612a0957612a096129b0565b81604052809350858152868686011115612a2257600080fd5b858560208301376000602087830101525050509392505050565b600082601f830112612a4d57600080fd5b611737838335602085016129c6565b600060208284031215612a6e57600080fd5b813567ffffffffffffffff811115612a8557600080fd5b6114a684828501612a3c565b600060208284031215612aa357600080fd5b6117378261292e565b600080600080600060a08688031215612ac457600080fd5b853567ffffffffffffffff80821115612adc57600080fd5b612ae889838a01612a3c565b96506020880135915080821115612afe57600080fd5b612b0a89838a01612a3c565b95506040880135915080821115612b2057600080fd5b50612b2d88828901612a3c565b9598949750949560608101359550608001359392505050565b8035801515811461294557600080fd5b600060208284031215612b6857600080fd5b61173782612b46565b6020808252825182820181905260009190848201906040850190845b81811015612ba957835183529284019291840191600101612b8d565b50909695505050505050565b60008060408385031215612bc857600080fd5b612bd18361292e565b9150612bdf60208401612b46565b90509250929050565b60008060008060808587031215612bfe57600080fd5b612c078561292e565b9350612c156020860161292e565b925060408501359150606085013567ffffffffffffffff811115612c3857600080fd5b8501601f81018713612c4957600080fd5b612c58878235602084016129c6565b91505092959194509250565b60008060408385031215612c7757600080fd5b612c808361292e565b9150612bdf6020840161292e565b600181811c90821680612ca257607f821691505b60208210810361116e57634e487b7160e01b600052602260045260246000fd5b634e487b7160e01b600052603260045260246000fd5b601f82111561084457600081815260208120601f850160051c81016020861015612cff5750805b601f850160051c820191505b81811015610fc357828155600101612d0b565b815167ffffffffffffffff811115612d3857612d386129b0565b612d4c81612d468454612c8e565b84612cd8565b602080601f831160018114612d815760008415612d695750858301515b600019600386901b1c1916600185901b178555610fc3565b600085815260208120601f198616915b82811015612db057888601518255948401946001909101908401612d91565b5085821015612dce5787850151600019600388901b60f8161c191681555b5050505050600190811b01905550565b634e487b7160e01b600052601160045260246000fd5b600060018201612e0657612e06612dde565b5060010190565b818103818111156105e6576105e6612dde565b808201808211156105e6576105e6612dde565b60008351612e458184602088016128b2565b835190830190612e598183602088016128b2565b01949350505050565b60006001600160a01b03808716835280861660208401525083604083015260806060830152612e9460808301846128d6565b9695505050505050565b600060208284031215612eb057600080fd5b81516117378161287f565b634e487b7160e01b600052601260045260246000fd5b600082612ee057612ee0612ebb565b500490565b600082612ef457612ef4612ebb565b500690565b634e487b7160e01b600052603160045260246000fdfea2646970667358221220cb2e30b1dd679788471252360a1957ff8caca85d77e7d90158f1ee5f7cf9cd5e64736f6c63430008130033",
  "immutableReferences": {},
  "source": "// SPDX-License-Identifier: MIT\npragma solidity ^0.8.2;\n\nimport \"@openzeppelin/contracts-upgradeable/token/ERC721/ERC721Upgradeable.sol\";\nimport \"@openzeppelin/contracts-upgradeable/token/ERC721/extensions/ERC721EnumerableUpgradeable.sol\";\nimport \"@openzeppelin/contracts-upgradeable/token/ERC721/extensions/ERC721URIStorageUpgradeable.sol\";\nimport \"@openzeppelin/contracts-upgradeable/security/PausableUpgradeable.sol\";\nimport \"@openzeppelin/contracts-upgradeable/access/OwnableUpgradeable.sol\";\nimport \"@openzeppelin/contracts-upgradeable/token/ERC721/extensions/ERC721BurnableUpgradeable.sol\";\nimport \"@openzeppelin/contracts-upgradeable/proxy/utils/Initializable.sol\";\nimport \"@openzeppelin/contracts-upgradeable/utils/CountersUpgradeable.sol\";\nimport \"@openzeppelin/contracts-upgradeable/utils/math/SafeMathUpgradeable.sol\";\n\ncontract MyNFT is Initializable, ERC721Upgradeable, ERC721EnumerableUpgradeable, ERC721URIStorageUpgradeable, PausableUpgradeable, OwnableUpgradeable, ERC721BurnableUpgradeable {\n    using CountersUpgradeable for CountersUpgradeable.Counter;\n    using SafeMathUpgradeable for uint256;\n\n    CountersUpgradeable.Counter private _tokenIdCounter;\n    \n    // Contract private variables\n    bool private _isSaleActive;\n    uint256 private _pricePerToken;\n    uint256 private _maxSupply;\n    string private _baseTokenURI;\n\n    /**\n     * @dev Emitted when the base URI is changed.\n     */\n    event UriChanged();\n\n    /// @custom:oz-upgrades-unsafe-allow constructor\n    constructor() initializer {}\n\n    function initialize(string memory name, string memory symbol, string memory baseTokenURI, uint256 maxTokenSupply, uint256 tokenPrice) initializer public {\n        __ERC721_init(name, symbol);\n        __ERC721Enumerable_init();\n        __ERC721URIStorage_init();\n        __Pausable_init();\n        __Ownable_init();\n        __ERC721Burnable_init();\n\n        _isSaleActive = true;\n        _baseTokenURI = baseTokenURI;\n        _maxSupply = maxTokenSupply;\n        _pricePerToken = tokenPrice;\n    }\n\n\n    /// @dev This method should be invoked from WEB3 for minting a new NFT\n    function safeMint() public payable {\n        uint256 tokenId = _tokenIdCounter.current();\n\n        require(_isSaleActive, \"Sale must be active to mint NFT\");\n        require(tokenId.add(1) <= _maxSupply, \"Purchase would exceed max supply of NFTs\");\n        require(_pricePerToken <= msg.value, \"Ether value sent is not correct\");\n\n        _tokenIdCounter.increment();\n        _safeMint(msg.sender, tokenId);\n    }\n\n    /// @notice Returns a list of all NFT IDs assigned to an address.\n    /// @param _owner The owner whose NFTs we are interested in.\n    /// @dev This method MUST NEVER be called by smart contract code. First, it's fairly\n    ///  expensive (it walks the entire Kitty array looking for cats belonging to owner),\n    ///  but it also returns a dynamic array, which is only supported for web3 calls, and\n    ///  not contract-to-contract calls.\n    function tokensOfOwner(address _owner) public view returns(uint256[] memory ownerTokens) {\n        uint256 tokenCount = balanceOf(_owner);\n\n        if (tokenCount == 0) {\n            // Return an empty array\n            return new uint256[](0);\n        } else {\n            uint256[] memory result = new uint256[](tokenCount);\n            uint256 resultIndex = 0;\n\n            // We count on the fact that all cats have IDs starting at 1 and increasing\n            // sequentially up to the totalCat count.\n            uint256 index;\n            for (index = 0; index < tokenCount; index++) {\n                result[resultIndex] = tokenOfOwnerByIndex(_owner ,index);\n                resultIndex++;\n            }\n            return result;\n        }\n    }\n\n    /// @param isActive Sale status param.\n    /// @dev This method should be invoked from WEB3 for setting sale active status\n    function setSaleActive(bool isActive) public onlyOwner {\n        _isSaleActive = isActive;\n    }\n\n    /// @param newBaseTokenURI New base token URI.\n    /// @dev This method should be invoked from WEB3 for setting base token URI\n    function setBaseURI(string memory newBaseTokenURI) public onlyOwner {\n        _baseTokenURI = newBaseTokenURI;\n        emit UriChanged();\n    }\n\n    function _beforeTokenTransfer(address from, address to, uint256 tokenId)\n        internal\n        whenNotPaused\n        override(ERC721Upgradeable, ERC721EnumerableUpgradeable)\n    {\n        super._beforeTokenTransfer(from, to, tokenId);\n    }\n\n    /// @dev This method should be invoked from WEB3 from owner's account to PAUSE the smart contract\n    function pause() public onlyOwner {\n        _pause();\n    }\n\n    /// @dev This method should be invoked from WEB3 from owner's account to UNPAUSE the smart contract\n    function unpause() public onlyOwner {\n        _unpause();\n    }\n\n    // The following functions are overrides required by Solidity.\n\n    function _burn(uint256 tokenId)\n        internal\n        override(ERC721Upgradeable, ERC721URIStorageUpgradeable)\n    {\n        super._burn(tokenId);\n    }\n\n    function tokenURI(uint256 tokenId)\n        public\n        view\n        override(ERC721Upgradeable, ERC721URIStorageUpgradeable)\n        returns (string memory)\n    {\n        return super.tokenURI(tokenId);\n    }\n\n    function supportsInterface(bytes4 interfaceId)\n        public\n        view\n        override(ERC721Upgradeable, ERC721EnumerableUpgradeable)\n        returns (bool)\n    {\n        return super.supportsInterface(interfaceId);\n    }\n\n    function _baseURI() internal view virtual override returns (string memory) {\n        return _baseTokenURI;\n    }\n\n    /// @dev This method should be invoked from WEB3 for getting current sale active status\n    function isSaleActive() public view returns (bool) {\n        return _isSaleActive;\n    }\n\n    /// @dev Method for getting price required for minting per NFT token\n    function pricePerToken() public view returns (uint256) {\n        return _pricePerToken;\n    }\n\n    /// @dev Method for getting max supply count\n    function maxSupply() public view returns (uint256) {\n        return _maxSupply;\n    }\n\n    /// @dev Method for getting base URI for tokens\n    function baseURI() public view returns (string memory) {\n        return _baseTokenURI;\n    }\n}\n",
  "sourcePath": "/Users/inflaton/code/emtech/nft-commerce/eth-upgradable-nft/contracts/MyNFT.sol",
  "compiler": {
    "name": "solc",
    "version": "0.8.19+commit.7dd6d404.Emscripten.clang"
  },
  "schemaVersion": "3.4.13",
  "updatedAt": "2023-03-05T03:00:33.047Z",
  "networkType": "ethereum",
  "devdoc": {
    "events": {
      "Approval(address,address,uint256)": {
        "details": "Emitted when `owner` enables `approved` to manage the `tokenId` token."
      },
      "ApprovalForAll(address,address,bool)": {
        "details": "Emitted when `owner` enables or disables (`approved`) `operator` to manage all of its assets."
      },
      "Paused(address)": {
        "details": "Emitted when the pause is triggered by `account`."
      },
      "Transfer(address,address,uint256)": {
        "details": "Emitted when `tokenId` token is transferred from `from` to `to`."
      },
      "Unpaused(address)": {
        "details": "Emitted when the pause is lifted by `account`."
      },
      "UriChanged()": {
        "details": "Emitted when the base URI is changed."
      }
    },
    "kind": "dev",
    "methods": {
      "approve(address,uint256)": {
        "details": "See {IERC721-approve}."
      },
      "balanceOf(address)": {
        "details": "See {IERC721-balanceOf}."
      },
      "baseURI()": {
        "details": "Method for getting base URI for tokens"
      },
      "burn(uint256)": {
        "details": "Burns `tokenId`. See {ERC721-_burn}. Requirements: - The caller must own `tokenId` or be an approved operator."
      },
      "constructor": {
        "custom:oz-upgrades-unsafe-allow": "constructor"
      },
      "getApproved(uint256)": {
        "details": "See {IERC721-getApproved}."
      },
      "isApprovedForAll(address,address)": {
        "details": "See {IERC721-isApprovedForAll}."
      },
      "isSaleActive()": {
        "details": "This method should be invoked from WEB3 for getting current sale active status"
      },
      "maxSupply()": {
        "details": "Method for getting max supply count"
      },
      "name()": {
        "details": "See {IERC721Metadata-name}."
      },
      "owner()": {
        "details": "Returns the address of the current owner."
      },
      "ownerOf(uint256)": {
        "details": "See {IERC721-ownerOf}."
      },
      "pause()": {
        "details": "This method should be invoked from WEB3 from owner's account to PAUSE the smart contract"
      },
      "paused()": {
        "details": "Returns true if the contract is paused, and false otherwise."
      },
      "pricePerToken()": {
        "details": "Method for getting price required for minting per NFT token"
      },
      "renounceOwnership()": {
        "details": "Leaves the contract without owner. It will not be possible to call `onlyOwner` functions anymore. Can only be called by the current owner. NOTE: Renouncing ownership will leave the contract without an owner, thereby removing any functionality that is only available to the owner."
      },
      "safeMint()": {
        "details": "This method should be invoked from WEB3 for minting a new NFT"
      },
      "safeTransferFrom(address,address,uint256)": {
        "details": "See {IERC721-safeTransferFrom}."
      },
      "safeTransferFrom(address,address,uint256,bytes)": {
        "details": "See {IERC721-safeTransferFrom}."
      },
      "setApprovalForAll(address,bool)": {
        "details": "See {IERC721-setApprovalForAll}."
      },
      "setBaseURI(string)": {
        "details": "This method should be invoked from WEB3 for setting base token URI",
        "params": {
          "newBaseTokenURI": "New base token URI."
        }
      },
      "setSaleActive(bool)": {
        "details": "This method should be invoked from WEB3 for setting sale active status",
        "params": {
          "isActive": "Sale status param."
        }
      },
      "symbol()": {
        "details": "See {IERC721Metadata-symbol}."
      },
      "tokenByIndex(uint256)": {
        "details": "See {IERC721Enumerable-tokenByIndex}."
      },
      "tokenOfOwnerByIndex(address,uint256)": {
        "details": "See {IERC721Enumerable-tokenOfOwnerByIndex}."
      },
      "tokensOfOwner(address)": {
        "details": "This method MUST NEVER be called by smart contract code. First, it's fairly  expensive (it walks the entire Kitty array looking for cats belonging to owner),  but it also returns a dynamic array, which is only supported for web3 calls, and  not contract-to-contract calls.",
        "params": {
          "_owner": "The owner whose NFTs we are interested in."
        }
      },
      "totalSupply()": {
        "details": "See {IERC721Enumerable-totalSupply}."
      },
      "transferFrom(address,address,uint256)": {
        "details": "See {IERC721-transferFrom}."
      },
      "transferOwnership(address)": {
        "details": "Transfers ownership of the contract to a new account (`newOwner`). Can only be called by the current owner."
      },
      "unpause()": {
        "details": "This method should be invoked from WEB3 from owner's account to UNPAUSE the smart contract"
      }
    },
    "version": 1
  },
  "userdoc": {
    "kind": "user",
    "methods": {
      "tokensOfOwner(address)": {
        "notice": "Returns a list of all NFT IDs assigned to an address."
      }
    },
    "version": 1
  }
}