{
  "contractName": "MyNFTV3",
  "abi": [
    {
      "inputs": [],
      "stateMutability": "nonpayable",
      "type": "constructor"
    },
    {
      "anonymous": false,
      "inputs": [
        {
          "indexed": true,
          "internalType": "address",
          "name": "owner",
          "type": "address"
        },
        {
          "indexed": true,
          "internalType": "address",
          "name": "approved",
          "type": "address"
        },
        {
          "indexed": true,
          "internalType": "uint256",
          "name": "tokenId",
          "type": "uint256"
        }
      ],
      "name": "Approval",
      "type": "event"
    },
    {
      "anonymous": false,
      "inputs": [
        {
          "indexed": true,
          "internalType": "address",
          "name": "owner",
          "type": "address"
        },
        {
          "indexed": true,
          "internalType": "address",
          "name": "operator",
          "type": "address"
        },
        {
          "indexed": false,
          "internalType": "bool",
          "name": "approved",
          "type": "bool"
        }
      ],
      "name": "ApprovalForAll",
      "type": "event"
    },
    {
      "anonymous": false,
      "inputs": [
        {
          "indexed": true,
          "internalType": "address",
          "name": "previousOwner",
          "type": "address"
        },
        {
          "indexed": true,
          "internalType": "address",
          "name": "newOwner",
          "type": "address"
        }
      ],
      "name": "OwnershipTransferred",
      "type": "event"
    },
    {
      "anonymous": false,
      "inputs": [
        {
          "indexed": false,
          "internalType": "address",
          "name": "account",
          "type": "address"
        }
      ],
      "name": "Paused",
      "type": "event"
    },
    {
      "anonymous": false,
      "inputs": [
        {
          "indexed": true,
          "internalType": "address",
          "name": "from",
          "type": "address"
        },
        {
          "indexed": true,
          "internalType": "address",
          "name": "to",
          "type": "address"
        },
        {
          "indexed": true,
          "internalType": "uint256",
          "name": "tokenId",
          "type": "uint256"
        }
      ],
      "name": "Transfer",
      "type": "event"
    },
    {
      "anonymous": false,
      "inputs": [
        {
          "indexed": false,
          "internalType": "address",
          "name": "account",
          "type": "address"
        }
      ],
      "name": "Unpaused",
      "type": "event"
    },
    {
      "anonymous": false,
      "inputs": [],
      "name": "UriChanged",
      "type": "event"
    },
    {
      "inputs": [
        {
          "internalType": "address",
          "name": "to",
          "type": "address"
        },
        {
          "internalType": "uint256",
          "name": "tokenId",
          "type": "uint256"
        }
      ],
      "name": "approve",
      "outputs": [],
      "stateMutability": "nonpayable",
      "type": "function"
    },
    {
      "inputs": [
        {
          "internalType": "address",
          "name": "owner",
          "type": "address"
        }
      ],
      "name": "balanceOf",
      "outputs": [
        {
          "internalType": "uint256",
          "name": "",
          "type": "uint256"
        }
      ],
      "stateMutability": "view",
      "type": "function",
      "constant": true
    },
    {
      "inputs": [
        {
          "internalType": "uint256",
          "name": "tokenId",
          "type": "uint256"
        }
      ],
      "name": "burn",
      "outputs": [],
      "stateMutability": "nonpayable",
      "type": "function"
    },
    {
      "inputs": [
        {
          "internalType": "uint256",
          "name": "tokenId",
          "type": "uint256"
        }
      ],
      "name": "getApproved",
      "outputs": [
        {
          "internalType": "address",
          "name": "",
          "type": "address"
        }
      ],
      "stateMutability": "view",
      "type": "function",
      "constant": true
    },
    {
      "inputs": [
        {
          "internalType": "address",
          "name": "owner",
          "type": "address"
        },
        {
          "internalType": "address",
          "name": "operator",
          "type": "address"
        }
      ],
      "name": "isApprovedForAll",
      "outputs": [
        {
          "internalType": "bool",
          "name": "",
          "type": "bool"
        }
      ],
      "stateMutability": "view",
      "type": "function",
      "constant": true
    },
    {
      "inputs": [],
      "name": "name",
      "outputs": [
        {
          "internalType": "string",
          "name": "",
          "type": "string"
        }
      ],
      "stateMutability": "view",
      "type": "function",
      "constant": true
    },
    {
      "inputs": [],
      "name": "owner",
      "outputs": [
        {
          "internalType": "address",
          "name": "",
          "type": "address"
        }
      ],
      "stateMutability": "view",
      "type": "function",
      "constant": true
    },
    {
      "inputs": [
        {
          "internalType": "uint256",
          "name": "tokenId",
          "type": "uint256"
        }
      ],
      "name": "ownerOf",
      "outputs": [
        {
          "internalType": "address",
          "name": "",
          "type": "address"
        }
      ],
      "stateMutability": "view",
      "type": "function",
      "constant": true
    },
    {
      "inputs": [],
      "name": "paused",
      "outputs": [
        {
          "internalType": "bool",
          "name": "",
          "type": "bool"
        }
      ],
      "stateMutability": "view",
      "type": "function",
      "constant": true
    },
    {
      "inputs": [],
      "name": "renounceOwnership",
      "outputs": [],
      "stateMutability": "nonpayable",
      "type": "function"
    },
    {
      "inputs": [
        {
          "internalType": "address",
          "name": "from",
          "type": "address"
        },
        {
          "internalType": "address",
          "name": "to",
          "type": "address"
        },
        {
          "internalType": "uint256",
          "name": "tokenId",
          "type": "uint256"
        }
      ],
      "name": "safeTransferFrom",
      "outputs": [],
      "stateMutability": "nonpayable",
      "type": "function"
    },
    {
      "inputs": [
        {
          "internalType": "address",
          "name": "from",
          "type": "address"
        },
        {
          "internalType": "address",
          "name": "to",
          "type": "address"
        },
        {
          "internalType": "uint256",
          "name": "tokenId",
          "type": "uint256"
        },
        {
          "internalType": "bytes",
          "name": "_data",
          "type": "bytes"
        }
      ],
      "name": "safeTransferFrom",
      "outputs": [],
      "stateMutability": "nonpayable",
      "type": "function"
    },
    {
      "inputs": [
        {
          "internalType": "address",
          "name": "operator",
          "type": "address"
        },
        {
          "internalType": "bool",
          "name": "approved",
          "type": "bool"
        }
      ],
      "name": "setApprovalForAll",
      "outputs": [],
      "stateMutability": "nonpayable",
      "type": "function"
    },
    {
      "inputs": [],
      "name": "symbol",
      "outputs": [
        {
          "internalType": "string",
          "name": "",
          "type": "string"
        }
      ],
      "stateMutability": "view",
      "type": "function",
      "constant": true
    },
    {
      "inputs": [
        {
          "internalType": "uint256",
          "name": "index",
          "type": "uint256"
        }
      ],
      "name": "tokenByIndex",
      "outputs": [
        {
          "internalType": "uint256",
          "name": "",
          "type": "uint256"
        }
      ],
      "stateMutability": "view",
      "type": "function",
      "constant": true
    },
    {
      "inputs": [
        {
          "internalType": "address",
          "name": "owner",
          "type": "address"
        },
        {
          "internalType": "uint256",
          "name": "index",
          "type": "uint256"
        }
      ],
      "name": "tokenOfOwnerByIndex",
      "outputs": [
        {
          "internalType": "uint256",
          "name": "",
          "type": "uint256"
        }
      ],
      "stateMutability": "view",
      "type": "function",
      "constant": true
    },
    {
      "inputs": [],
      "name": "totalSupply",
      "outputs": [
        {
          "internalType": "uint256",
          "name": "",
          "type": "uint256"
        }
      ],
      "stateMutability": "view",
      "type": "function",
      "constant": true
    },
    {
      "inputs": [
        {
          "internalType": "address",
          "name": "from",
          "type": "address"
        },
        {
          "internalType": "address",
          "name": "to",
          "type": "address"
        },
        {
          "internalType": "uint256",
          "name": "tokenId",
          "type": "uint256"
        }
      ],
      "name": "transferFrom",
      "outputs": [],
      "stateMutability": "nonpayable",
      "type": "function"
    },
    {
      "inputs": [
        {
          "internalType": "address",
          "name": "newOwner",
          "type": "address"
        }
      ],
      "name": "transferOwnership",
      "outputs": [],
      "stateMutability": "nonpayable",
      "type": "function"
    },
    {
      "inputs": [
        {
          "internalType": "string",
          "name": "name",
          "type": "string"
        },
        {
          "internalType": "string",
          "name": "symbol",
          "type": "string"
        },
        {
          "internalType": "string",
          "name": "baseTokenURI",
          "type": "string"
        },
        {
          "internalType": "uint256",
          "name": "maxTokenSupply",
          "type": "uint256"
        },
        {
          "internalType": "uint256",
          "name": "tokenPrice",
          "type": "uint256"
        }
      ],
      "name": "initialize",
      "outputs": [],
      "stateMutability": "nonpayable",
      "type": "function"
    },
    {
      "inputs": [],
      "name": "safeMint",
      "outputs": [],
      "stateMutability": "payable",
      "type": "function",
      "payable": true
    },
    {
      "inputs": [
        {
          "internalType": "address",
          "name": "_owner",
          "type": "address"
        }
      ],
      "name": "tokensOfOwner",
      "outputs": [
        {
          "internalType": "uint256[]",
          "name": "ownerTokens",
          "type": "uint256[]"
        }
      ],
      "stateMutability": "view",
      "type": "function",
      "constant": true
    },
    {
      "inputs": [],
      "name": "withdraw",
      "outputs": [],
      "stateMutability": "nonpayable",
      "type": "function"
    },
    {
      "inputs": [],
      "name": "ethBalance",
      "outputs": [
        {
          "internalType": "uint256",
          "name": "",
          "type": "uint256"
        }
      ],
      "stateMutability": "view",
      "type": "function",
      "constant": true
    },
    {
      "inputs": [
        {
          "internalType": "bool",
          "name": "isActive",
          "type": "bool"
        }
      ],
      "name": "setSaleActive",
      "outputs": [],
      "stateMutability": "nonpayable",
      "type": "function"
    },
    {
      "inputs": [
        {
          "internalType": "string",
          "name": "newBaseTokenURI",
          "type": "string"
        }
      ],
      "name": "setBaseURI",
      "outputs": [],
      "stateMutability": "nonpayable",
      "type": "function"
    },
    {
      "inputs": [],
      "name": "pause",
      "outputs": [],
      "stateMutability": "nonpayable",
      "type": "function"
    },
    {
      "inputs": [],
      "name": "unpause",
      "outputs": [],
      "stateMutability": "nonpayable",
      "type": "function"
    },
    {
      "inputs": [
        {
          "internalType": "uint256",
          "name": "tokenId",
          "type": "uint256"
        }
      ],
      "name": "tokenURI",
      "outputs": [
        {
          "internalType": "string",
          "name": "",
          "type": "string"
        }
      ],
      "stateMutability": "view",
      "type": "function",
      "constant": true
    },
    {
      "inputs": [
        {
          "internalType": "bytes4",
          "name": "interfaceId",
          "type": "bytes4"
        }
      ],
      "name": "supportsInterface",
      "outputs": [
        {
          "internalType": "bool",
          "name": "",
          "type": "bool"
        }
      ],
      "stateMutability": "view",
      "type": "function",
      "constant": true
    },
    {
      "inputs": [],
      "name": "isSaleActive",
      "outputs": [
        {
          "internalType": "bool",
          "name": "",
          "type": "bool"
        }
      ],
      "stateMutability": "view",
      "type": "function",
      "constant": true
    },
    {
      "inputs": [],
      "name": "pricePerToken",
      "outputs": [
        {
          "internalType": "uint256",
          "name": "",
          "type": "uint256"
        }
      ],
      "stateMutability": "view",
      "type": "function",
      "constant": true
    },
    {
      "inputs": [],
      "name": "maxSupply",
      "outputs": [
        {
          "internalType": "uint256",
          "name": "",
          "type": "uint256"
        }
      ],
      "stateMutability": "view",
      "type": "function",
      "constant": true
    },
    {
      "inputs": [],
      "name": "baseURI",
      "outputs": [
        {
          "internalType": "string",
          "name": "",
          "type": "string"
        }
      ],
      "stateMutability": "view",
      "type": "function",
      "constant": true
    }
  ],
  "bytecode": "0x60806040523480156200001157600080fd5b50600054610100900460ff166200002f5760005460ff161562000033565b303b155b6200009b5760405162461bcd60e51b815260206004820152602e60248201527f496e697469616c697a61626c653a20636f6e747261637420697320616c72656160448201526d191e481a5b9a5d1a585b1a5e995960921b606482015260840160405180910390fd5b600054610100900460ff16158015620000be576000805461ffff19166101011790555b8015620000d1576000805461ff00191690555b5061304a80620000e26000396000f3fe6080604052600436106102195760003560e01c80636871ee401161011d5780638462151c116100b0578063b88d4fde1161007f578063d5abeb0111610064578063d5abeb01146105ba578063e985e9c5146105d0578063f2fde38b1461061957600080fd5b8063b88d4fde1461057a578063c87b56dd1461059a57600080fd5b80638462151c146104f95780638da5cb5b1461052657806395d89b4114610545578063a22cb4651461055a57600080fd5b80637b1b1de6116100ec5780637b1b1de61461048e57806380ddd09f146104a4578063841718a6146104c45780638456cb59146104e457600080fd5b80636871ee401461043c5780636c0360eb1461044457806370a0823114610459578063715018a61461047957600080fd5b80633f4ba83a116101b05780634f6ccce71161017f578063564566a811610164578063564566a8146103eb5780635c975abb146104045780636352211e1461041c57600080fd5b80634f6ccce7146103ab57806355f804b3146103cb57600080fd5b80633f4ba83a1461034357806342842e0e1461035857806342966c68146103785780634e6630b01461039857600080fd5b806318160ddd116101ec57806318160ddd146102cf57806323b872dd146102ee5780632f745c591461030e5780633ccfd60b1461032e57600080fd5b806301ffc9a71461021e57806306fdde0314610253578063081812fc14610275578063095ea7b3146102ad575b600080fd5b34801561022a57600080fd5b5061023e61023936600461299a565b610639565b60405190151581526020015b60405180910390f35b34801561025f57600080fd5b5061026861064a565b60405161024a9190612a07565b34801561028157600080fd5b50610295610290366004612a1a565b6106dc565b6040516001600160a01b03909116815260200161024a565b3480156102b957600080fd5b506102cd6102c8366004612a4f565b610776565b005b3480156102db57600080fd5b506099545b60405190815260200161024a565b3480156102fa57600080fd5b506102cd610309366004612a79565b6108a7565b34801561031a57600080fd5b506102e0610329366004612a4f565b61092f565b34801561033a57600080fd5b506102cd6109d7565b34801561034f57600080fd5b506102cd610a82565b34801561036457600080fd5b506102cd610373366004612a79565b610ae7565b34801561038457600080fd5b506102cd610393366004612a1a565b610b02565b3480156103a457600080fd5b50476102e0565b3480156103b757600080fd5b506102e06103c6366004612a1a565b610b89565b3480156103d757600080fd5b506102cd6103e6366004612b61565b610c2d565b3480156103f757600080fd5b506101925460ff1661023e565b34801561041057600080fd5b5060fb5460ff1661023e565b34801561042857600080fd5b50610295610437366004612a1a565b610cc2565b6102cd610d4d565b34801561045057600080fd5b50610268610e9e565b34801561046557600080fd5b506102e0610474366004612b96565b610eae565b34801561048557600080fd5b506102cd610f48565b34801561049a57600080fd5b50610193546102e0565b3480156104b057600080fd5b506102cd6104bf366004612bb1565b610fad565b3480156104d057600080fd5b506102cd6104df366004612c5b565b6110d4565b3480156104f057600080fd5b506102cd611143565b34801561050557600080fd5b50610519610514366004612b96565b6111a6565b60405161024a9190612c76565b34801561053257600080fd5b5061012d546001600160a01b0316610295565b34801561055157600080fd5b5061026861127d565b34801561056657600080fd5b506102cd610575366004612cba565b61128c565b34801561058657600080fd5b506102cd610595366004612ced565b611297565b3480156105a657600080fd5b506102686105b5366004612a1a565b611325565b3480156105c657600080fd5b50610194546102e0565b3480156105dc57600080fd5b5061023e6105eb366004612d69565b6001600160a01b039182166000908152606a6020908152604080832093909416825291909152205460ff1690565b34801561062557600080fd5b506102cd610634366004612b96565b611330565b600061064482611410565b92915050565b60606065805461065990612d93565b80601f016020809104026020016040519081016040528092919081815260200182805461068590612d93565b80156106d25780601f106106a7576101008083540402835291602001916106d2565b820191906000526020600020905b8154815290600101906020018083116106b557829003601f168201915b5050505050905090565b6000818152606760205260408120546001600160a01b031661075a5760405162461bcd60e51b815260206004820152602c60248201527f4552433732313a20617070726f76656420717565727920666f72206e6f6e657860448201526b34b9ba32b73a103a37b5b2b760a11b60648201526084015b60405180910390fd5b506000908152606960205260409020546001600160a01b031690565b600061078182610cc2565b9050806001600160a01b0316836001600160a01b03160361080a5760405162461bcd60e51b815260206004820152602160248201527f4552433732313a20617070726f76616c20746f2063757272656e74206f776e6560448201527f72000000000000000000000000000000000000000000000000000000000000006064820152608401610751565b336001600160a01b0382161480610826575061082681336105eb565b6108985760405162461bcd60e51b815260206004820152603860248201527f4552433732313a20617070726f76652063616c6c6572206973206e6f74206f7760448201527f6e6572206e6f7220617070726f76656420666f7220616c6c00000000000000006064820152608401610751565b6108a2838361144e565b505050565b6108b2335b826114bc565b6109245760405162461bcd60e51b815260206004820152603160248201527f4552433732313a207472616e736665722063616c6c6572206973206e6f74206f60448201527f776e6572206e6f7220617070726f7665640000000000000000000000000000006064820152608401610751565b6108a28383836115b3565b600061093a83610eae565b82106109ae5760405162461bcd60e51b815260206004820152602b60248201527f455243373231456e756d657261626c653a206f776e657220696e646578206f7560448201527f74206f6620626f756e64730000000000000000000000000000000000000000006064820152608401610751565b506001600160a01b03919091166000908152609760209081526040808320938352929052205490565b61012d546001600160a01b03163314610a325760405162461bcd60e51b815260206004820181905260248201527f4f776e61626c653a2063616c6c6572206973206e6f7420746865206f776e65726044820152606401610751565b47610a4661012d546001600160a01b031690565b6001600160a01b03166108fc829081150290604051600060405180830381858888f19350505050158015610a7e573d6000803e3d6000fd5b5050565b61012d546001600160a01b03163314610add5760405162461bcd60e51b815260206004820181905260248201527f4f776e61626c653a2063616c6c6572206973206e6f7420746865206f776e65726044820152606401610751565b610ae561178b565b565b6108a283838360405180602001604052806000815250611297565b610b0b336108ac565b610b7d5760405162461bcd60e51b815260206004820152603060248201527f4552433732314275726e61626c653a2063616c6c6572206973206e6f74206f7760448201527f6e6572206e6f7220617070726f766564000000000000000000000000000000006064820152608401610751565b610b8681611827565b50565b6000610b9460995490565b8210610c085760405162461bcd60e51b815260206004820152602c60248201527f455243373231456e756d657261626c653a20676c6f62616c20696e646578206f60448201527f7574206f6620626f756e647300000000000000000000000000000000000000006064820152608401610751565b60998281548110610c1b57610c1b612dc7565b90600052602060002001549050919050565b61012d546001600160a01b03163314610c885760405162461bcd60e51b815260206004820181905260248201527f4f776e61626c653a2063616c6c6572206973206e6f7420746865206f776e65726044820152606401610751565b610195610c958282612e23565b506040517fc20fc16a841df46e2f670ae554047dbc09e2955d620062501289021c445917a190600090a150565b6000818152606760205260408120546001600160a01b0316806106445760405162461bcd60e51b815260206004820152602960248201527f4552433732313a206f776e657220717565727920666f72206e6f6e657869737460448201527f656e7420746f6b656e00000000000000000000000000000000000000000000006064820152608401610751565b6000610d596101915490565b6101925490915060ff16610daf5760405162461bcd60e51b815260206004820152601f60248201527f53616c65206d7573742062652061637469766520746f206d696e74204e4654006044820152606401610751565b61019454610dbe826001611830565b1115610e325760405162461bcd60e51b815260206004820152602860248201527f507572636861736520776f756c6420657863656564206d617820737570706c7960448201527f206f66204e4654730000000000000000000000000000000000000000000000006064820152608401610751565b34610193541115610e855760405162461bcd60e51b815260206004820152601f60248201527f45746865722076616c75652073656e74206973206e6f7420636f7272656374006044820152606401610751565b610e9461019180546001019055565b610b863382611843565b6060610195805461065990612d93565b60006001600160a01b038216610f2c5760405162461bcd60e51b815260206004820152602a60248201527f4552433732313a2062616c616e636520717565727920666f7220746865207a6560448201527f726f2061646472657373000000000000000000000000000000000000000000006064820152608401610751565b506001600160a01b031660009081526068602052604090205490565b61012d546001600160a01b03163314610fa35760405162461bcd60e51b815260206004820181905260248201527f4f776e61626c653a2063616c6c6572206973206e6f7420746865206f776e65726044820152606401610751565b610ae5600061185d565b600054610100900460ff16610fc85760005460ff1615610fcc565b303b155b61103e5760405162461bcd60e51b815260206004820152602e60248201527f496e697469616c697a61626c653a20636f6e747261637420697320616c72656160448201527f647920696e697469616c697a65640000000000000000000000000000000000006064820152608401610751565b600054610100900460ff16158015611060576000805461ffff19166101011790555b61106a86866118b0565b611072611935565b61107a611935565b6110826119b8565b61108a611a33565b611092611935565b610192805460ff191660011790556101956110ad8582612e23565b5061019483905561019382905580156110cc576000805461ff00191690555b505050505050565b61012d546001600160a01b0316331461112f5760405162461bcd60e51b815260206004820181905260248201527f4f776e61626c653a2063616c6c6572206973206e6f7420746865206f776e65726044820152606401610751565b610192805460ff1916911515919091179055565b61012d546001600160a01b0316331461119e5760405162461bcd60e51b815260206004820181905260248201527f4f776e61626c653a2063616c6c6572206973206e6f7420746865206f776e65726044820152606401610751565b610ae5611aae565b606060006111b383610eae565b9050806000036111d3575050604080516000815260208101909152919050565b60008167ffffffffffffffff8111156111ee576111ee612ab5565b604051908082528060200260200182016040528015611217578160200160208202803683370190505b5090506000805b8381101561126d57611230868261092f565b83838151811061124257611242612dc7565b60209081029190910101528161125781612ef9565b925050808061126590612ef9565b91505061121e565b5090949350505050565b50919050565b60606066805461065990612d93565b610a7e338383611b36565b6112a133836114bc565b6113135760405162461bcd60e51b815260206004820152603160248201527f4552433732313a207472616e736665722063616c6c6572206973206e6f74206f60448201527f776e6572206e6f7220617070726f7665640000000000000000000000000000006064820152608401610751565b61131f84848484611c04565b50505050565b606061064482611c82565b61012d546001600160a01b0316331461138b5760405162461bcd60e51b815260206004820181905260248201527f4f776e61626c653a2063616c6c6572206973206e6f7420746865206f776e65726044820152606401610751565b6001600160a01b0381166114075760405162461bcd60e51b815260206004820152602660248201527f4f776e61626c653a206e6577206f776e657220697320746865207a65726f206160448201527f64647265737300000000000000000000000000000000000000000000000000006064820152608401610751565b610b868161185d565b60006001600160e01b031982167f780e9d63000000000000000000000000000000000000000000000000000000001480610644575061064482611dff565b600081815260696020526040902080546001600160a01b0319166001600160a01b038416908117909155819061148382610cc2565b6001600160a01b03167f8c5be1e5ebec7d5bd14f71427d1e84f3dd0314c0f7b2291e5b200ac8c7c3b92560405160405180910390a45050565b6000818152606760205260408120546001600160a01b03166115355760405162461bcd60e51b815260206004820152602c60248201527f4552433732313a206f70657261746f7220717565727920666f72206e6f6e657860448201526b34b9ba32b73a103a37b5b2b760a11b6064820152608401610751565b600061154083610cc2565b9050806001600160a01b0316846001600160a01b0316148061157b5750836001600160a01b0316611570846106dc565b6001600160a01b0316145b806115ab57506001600160a01b038082166000908152606a602090815260408083209388168352929052205460ff165b949350505050565b826001600160a01b03166115c682610cc2565b6001600160a01b0316146116425760405162461bcd60e51b815260206004820152602960248201527f4552433732313a207472616e73666572206f6620746f6b656e2074686174206960448201527f73206e6f74206f776e00000000000000000000000000000000000000000000006064820152608401610751565b6001600160a01b0382166116bd5760405162461bcd60e51b8152602060048201526024808201527f4552433732313a207472616e7366657220746f20746865207a65726f2061646460448201527f72657373000000000000000000000000000000000000000000000000000000006064820152608401610751565b6116c8838383611e9a565b6116d360008261144e565b6001600160a01b03831660009081526068602052604081208054600192906116fc908490612f12565b90915550506001600160a01b038216600090815260686020526040812080546001929061172a908490612f25565b909155505060008181526067602052604080822080546001600160a01b0319166001600160a01b0386811691821790925591518493918716917fddf252ad1be2c89b69c2b068fc378daa952ba7f163c4a11628f55a4df523b3ef91a4505050565b60fb5460ff166117dd5760405162461bcd60e51b815260206004820152601460248201527f5061757361626c653a206e6f74207061757365640000000000000000000000006044820152606401610751565b60fb805460ff191690557f5db9ee0a495bf2e6ff9c91a7834c1ba4fdd244a5e8aa4e537bd38aeae4b073aa335b6040516001600160a01b03909116815260200160405180910390a1565b610b8681611ef8565b600061183c8284612f25565b9392505050565b610a7e828260405180602001604052806000815250611f38565b61012d80546001600160a01b038381166001600160a01b0319831681179093556040519116919082907f8be0079c531659141344cd1fd0a4f28419497f9722a3daafe3b4186f6b6457e090600090a35050565b600054610100900460ff1661191b5760405162461bcd60e51b815260206004820152602b60248201527f496e697469616c697a61626c653a20636f6e7472616374206973206e6f74206960448201526a6e697469616c697a696e6760a81b6064820152608401610751565b611923611fb6565b61192b611fb6565b610a7e8282612021565b600054610100900460ff166119a05760405162461bcd60e51b815260206004820152602b60248201527f496e697469616c697a61626c653a20636f6e7472616374206973206e6f74206960448201526a6e697469616c697a696e6760a81b6064820152608401610751565b6119a8611fb6565b6119b0611fb6565b610ae5611fb6565b600054610100900460ff16611a235760405162461bcd60e51b815260206004820152602b60248201527f496e697469616c697a61626c653a20636f6e7472616374206973206e6f74206960448201526a6e697469616c697a696e6760a81b6064820152608401610751565b611a2b611fb6565b610ae56120a5565b600054610100900460ff16611a9e5760405162461bcd60e51b815260206004820152602b60248201527f496e697469616c697a61626c653a20636f6e7472616374206973206e6f74206960448201526a6e697469616c697a696e6760a81b6064820152608401610751565b611aa6611fb6565b610ae561211c565b60fb5460ff1615611b015760405162461bcd60e51b815260206004820152601060248201527f5061757361626c653a20706175736564000000000000000000000000000000006044820152606401610751565b60fb805460ff191660011790557f62e78cea01bee320cd4e420270b5ea74000d11b0c9f74754ebdbfc544b05a25861180a3390565b816001600160a01b0316836001600160a01b031603611b975760405162461bcd60e51b815260206004820152601960248201527f4552433732313a20617070726f766520746f2063616c6c6572000000000000006044820152606401610751565b6001600160a01b038381166000818152606a6020908152604080832094871680845294825291829020805460ff191686151590811790915591519182527f17307eab39ab6107e8899845ad3d59bd9653f200f220920489ca2b5937696c31910160405180910390a3505050565b611c0f8484846115b3565b611c1b84848484612190565b61131f5760405162461bcd60e51b815260206004820152603260248201527f4552433732313a207472616e7366657220746f206e6f6e20455243373231526560448201527131b2b4bb32b91034b6b83632b6b2b73a32b960711b6064820152608401610751565b6000818152606760205260409020546060906001600160a01b0316611d0f5760405162461bcd60e51b815260206004820152603160248201527f45524337323155524953746f726167653a2055524920717565727920666f722060448201527f6e6f6e6578697374656e7420746f6b656e0000000000000000000000000000006064820152608401610751565b600082815260c9602052604081208054611d2890612d93565b80601f0160208091040260200160405190810160405280929190818152602001828054611d5490612d93565b8015611da15780601f10611d7657610100808354040283529160200191611da1565b820191906000526020600020905b815481529060010190602001808311611d8457829003601f168201915b505050505090506000611db2610e9e565b90508051600003611dc4575092915050565b815115611df6578082604051602001611dde929190612f38565b60405160208183030381529060405292505050919050565b6115ab846122dc565b60006001600160e01b031982167f80ac58cd000000000000000000000000000000000000000000000000000000001480611e6257506001600160e01b031982167f5b5e139f00000000000000000000000000000000000000000000000000000000145b8061064457507f01ffc9a7000000000000000000000000000000000000000000000000000000006001600160e01b0319831614610644565b60fb5460ff1615611eed5760405162461bcd60e51b815260206004820152601060248201527f5061757361626c653a20706175736564000000000000000000000000000000006044820152606401610751565b6108a28383836123c4565b611f018161247c565b600081815260c9602052604090208054611f1a90612d93565b159050610b8657600081815260c960205260408120610b8691612936565b611f428383612523565b611f4f6000848484612190565b6108a25760405162461bcd60e51b815260206004820152603260248201527f4552433732313a207472616e7366657220746f206e6f6e20455243373231526560448201527131b2b4bb32b91034b6b83632b6b2b73a32b960711b6064820152608401610751565b600054610100900460ff16610ae55760405162461bcd60e51b815260206004820152602b60248201527f496e697469616c697a61626c653a20636f6e7472616374206973206e6f74206960448201526a6e697469616c697a696e6760a81b6064820152608401610751565b600054610100900460ff1661208c5760405162461bcd60e51b815260206004820152602b60248201527f496e697469616c697a61626c653a20636f6e7472616374206973206e6f74206960448201526a6e697469616c697a696e6760a81b6064820152608401610751565b60656120988382612e23565b5060666108a28282612e23565b600054610100900460ff166121105760405162461bcd60e51b815260206004820152602b60248201527f496e697469616c697a61626c653a20636f6e7472616374206973206e6f74206960448201526a6e697469616c697a696e6760a81b6064820152608401610751565b60fb805460ff19169055565b600054610100900460ff166121875760405162461bcd60e51b815260206004820152602b60248201527f496e697469616c697a61626c653a20636f6e7472616374206973206e6f74206960448201526a6e697469616c697a696e6760a81b6064820152608401610751565b610ae53361185d565b60006001600160a01b0384163b156122d157604051630a85bd0160e11b81526001600160a01b0385169063150b7a02906121d4903390899088908890600401612f67565b6020604051808303816000875af192505050801561220f575060408051601f3d908101601f1916820190925261220c91810190612fa3565b60015b6122b7573d80801561223d576040519150601f19603f3d011682016040523d82523d6000602084013e612242565b606091505b5080516000036122af5760405162461bcd60e51b815260206004820152603260248201527f4552433732313a207472616e7366657220746f206e6f6e20455243373231526560448201527131b2b4bb32b91034b6b83632b6b2b73a32b960711b6064820152608401610751565b805181602001fd5b6001600160e01b031916630a85bd0160e11b1490506115ab565b506001949350505050565b6000818152606760205260409020546060906001600160a01b03166123695760405162461bcd60e51b815260206004820152602f60248201527f4552433732314d657461646174613a2055524920717565727920666f72206e6f60448201527f6e6578697374656e7420746f6b656e00000000000000000000000000000000006064820152608401610751565b6000612373610e9e565b90506000815111612393576040518060200160405280600081525061183c565b8061239d84612671565b6040516020016123ae929190612f38565b6040516020818303038152906040529392505050565b6001600160a01b03831661241f5761241a81609980546000838152609a60205260408120829055600182018355919091527f72a152ddfb8e864297c917af52ea6c1c68aead0fee1a62673fcc7e0c94979d000155565b612442565b816001600160a01b0316836001600160a01b0316146124425761244283826127a6565b6001600160a01b038216612459576108a281612843565b826001600160a01b0316826001600160a01b0316146108a2576108a282826128f2565b600061248782610cc2565b905061249581600084611e9a565b6124a060008361144e565b6001600160a01b03811660009081526068602052604081208054600192906124c9908490612f12565b909155505060008281526067602052604080822080546001600160a01b0319169055518391906001600160a01b038416907fddf252ad1be2c89b69c2b068fc378daa952ba7f163c4a11628f55a4df523b3ef908390a45050565b6001600160a01b0382166125795760405162461bcd60e51b815260206004820181905260248201527f4552433732313a206d696e7420746f20746865207a65726f20616464726573736044820152606401610751565b6000818152606760205260409020546001600160a01b0316156125de5760405162461bcd60e51b815260206004820152601c60248201527f4552433732313a20746f6b656e20616c7265616479206d696e746564000000006044820152606401610751565b6125ea60008383611e9a565b6001600160a01b0382166000908152606860205260408120805460019290612613908490612f25565b909155505060008181526067602052604080822080546001600160a01b0319166001600160a01b03861690811790915590518392907fddf252ad1be2c89b69c2b068fc378daa952ba7f163c4a11628f55a4df523b3ef908290a45050565b6060816000036126b457505060408051808201909152600181527f3000000000000000000000000000000000000000000000000000000000000000602082015290565b8160005b81156126de57806126c881612ef9565b91506126d79050600a83612fd6565b91506126b8565b60008167ffffffffffffffff8111156126f9576126f9612ab5565b6040519080825280601f01601f191660200182016040528015612723576020820181803683370190505b5090505b84156115ab57612738600183612f12565b9150612745600a86612fea565b612750906030612f25565b60f81b81838151811061276557612765612dc7565b60200101907effffffffffffffffffffffffffffffffffffffffffffffffffffffffffffff1916908160001a90535061279f600a86612fd6565b9450612727565b600060016127b384610eae565b6127bd9190612f12565b600083815260986020526040902054909150808214612810576001600160a01b03841660009081526097602090815260408083208584528252808320548484528184208190558352609890915290208190555b5060009182526098602090815260408084208490556001600160a01b039094168352609781528383209183525290812055565b60995460009061285590600190612f12565b6000838152609a60205260408120546099805493945090928490811061287d5761287d612dc7565b90600052602060002001549050806099838154811061289e5761289e612dc7565b6000918252602080832090910192909255828152609a909152604080822084905585825281205560998054806128d6576128d6612ffe565b6001900381819060005260206000200160009055905550505050565b60006128fd83610eae565b6001600160a01b039093166000908152609760209081526040808320868452825280832085905593825260989052919091209190915550565b50805461294290612d93565b6000825580601f10612952575050565b601f016020900490600052602060002090810190610b8691905b80821115612980576000815560010161296c565b5090565b6001600160e01b031981168114610b8657600080fd5b6000602082840312156129ac57600080fd5b813561183c81612984565b60005b838110156129d25781810151838201526020016129ba565b50506000910152565b600081518084526129f38160208601602086016129b7565b601f01601f19169290920160200192915050565b60208152600061183c60208301846129db565b600060208284031215612a2c57600080fd5b5035919050565b80356001600160a01b0381168114612a4a57600080fd5b919050565b60008060408385031215612a6257600080fd5b612a6b83612a33565b946020939093013593505050565b600080600060608486031215612a8e57600080fd5b612a9784612a33565b9250612aa560208501612a33565b9150604084013590509250925092565b634e487b7160e01b600052604160045260246000fd5b600067ffffffffffffffff80841115612ae657612ae6612ab5565b604051601f8501601f19908116603f01168101908282118183101715612b0e57612b0e612ab5565b81604052809350858152868686011115612b2757600080fd5b858560208301376000602087830101525050509392505050565b600082601f830112612b5257600080fd5b61183c83833560208501612acb565b600060208284031215612b7357600080fd5b813567ffffffffffffffff811115612b8a57600080fd5b6115ab84828501612b41565b600060208284031215612ba857600080fd5b61183c82612a33565b600080600080600060a08688031215612bc957600080fd5b853567ffffffffffffffff80821115612be157600080fd5b612bed89838a01612b41565b96506020880135915080821115612c0357600080fd5b612c0f89838a01612b41565b95506040880135915080821115612c2557600080fd5b50612c3288828901612b41565b9598949750949560608101359550608001359392505050565b80358015158114612a4a57600080fd5b600060208284031215612c6d57600080fd5b61183c82612c4b565b6020808252825182820181905260009190848201906040850190845b81811015612cae57835183529284019291840191600101612c92565b50909695505050505050565b60008060408385031215612ccd57600080fd5b612cd683612a33565b9150612ce460208401612c4b565b90509250929050565b60008060008060808587031215612d0357600080fd5b612d0c85612a33565b9350612d1a60208601612a33565b925060408501359150606085013567ffffffffffffffff811115612d3d57600080fd5b8501601f81018713612d4e57600080fd5b612d5d87823560208401612acb565b91505092959194509250565b60008060408385031215612d7c57600080fd5b612d8583612a33565b9150612ce460208401612a33565b600181811c90821680612da757607f821691505b60208210810361127757634e487b7160e01b600052602260045260246000fd5b634e487b7160e01b600052603260045260246000fd5b601f8211156108a257600081815260208120601f850160051c81016020861015612e045750805b601f850160051c820191505b818110156110cc57828155600101612e10565b815167ffffffffffffffff811115612e3d57612e3d612ab5565b612e5181612e4b8454612d93565b84612ddd565b602080601f831160018114612e865760008415612e6e5750858301515b600019600386901b1c1916600185901b1785556110cc565b600085815260208120601f198616915b82811015612eb557888601518255948401946001909101908401612e96565b5085821015612ed35787850151600019600388901b60f8161c191681555b5050505050600190811b01905550565b634e487b7160e01b600052601160045260246000fd5b600060018201612f0b57612f0b612ee3565b5060010190565b8181038181111561064457610644612ee3565b8082018082111561064457610644612ee3565b60008351612f4a8184602088016129b7565b835190830190612f5e8183602088016129b7565b01949350505050565b60006001600160a01b03808716835280861660208401525083604083015260806060830152612f9960808301846129db565b9695505050505050565b600060208284031215612fb557600080fd5b815161183c81612984565b634e487b7160e01b600052601260045260246000fd5b600082612fe557612fe5612fc0565b500490565b600082612ff957612ff9612fc0565b500690565b634e487b7160e01b600052603160045260246000fdfea26469706673582212201045c168946ad0aaeaef56022b3666a71119a402cbf100fdc0d32391ecb0ab7e64736f6c63430008130033",
  "immutableReferences": {},
  "source": "// SPDX-License-Identifier: MIT\npragma solidity ^0.8.2;\n\nimport \"@openzeppelin/contracts-upgradeable/token/ERC721/ERC721Upgradeable.sol\";\nimport \"@openzeppelin/contracts-upgradeable/token/ERC721/extensions/ERC721EnumerableUpgradeable.sol\";\nimport \"@openzeppelin/contracts-upgradeable/token/ERC721/extensions/ERC721URIStorageUpgradeable.sol\";\nimport \"@openzeppelin/contracts-upgradeable/security/PausableUpgradeable.sol\";\nimport \"@openzeppelin/contracts-upgradeable/access/OwnableUpgradeable.sol\";\nimport \"@openzeppelin/contracts-upgradeable/token/ERC721/extensions/ERC721BurnableUpgradeable.sol\";\nimport \"@openzeppelin/contracts-upgradeable/proxy/utils/Initializable.sol\";\nimport \"@openzeppelin/contracts-upgradeable/utils/CountersUpgradeable.sol\";\nimport \"@openzeppelin/contracts-upgradeable/utils/math/SafeMathUpgradeable.sol\";\n\ncontract MyNFTV3 is\n    Initializable,\n    ERC721Upgradeable,\n    ERC721EnumerableUpgradeable,\n    ERC721URIStorageUpgradeable,\n    PausableUpgradeable,\n    OwnableUpgradeable,\n    ERC721BurnableUpgradeable\n{\n    using CountersUpgradeable for CountersUpgradeable.Counter;\n    using SafeMathUpgradeable for uint256;\n\n    CountersUpgradeable.Counter private _tokenIdCounter;\n\n    // Contract private variables\n    bool private _isSaleActive;\n    uint256 private _pricePerToken;\n    uint256 private _maxSupply;\n    string private _baseTokenURI;\n\n    /**\n     * @dev Emitted when the base URI is changed.\n     */\n    event UriChanged();\n\n    /// @custom:oz-upgrades-unsafe-allow constructor\n    constructor() initializer {}\n\n    function initialize(\n        string memory name,\n        string memory symbol,\n        string memory baseTokenURI,\n        uint256 maxTokenSupply,\n        uint256 tokenPrice\n    ) public initializer {\n        __ERC721_init(name, symbol);\n        __ERC721Enumerable_init();\n        __ERC721URIStorage_init();\n        __Pausable_init();\n        __Ownable_init();\n        __ERC721Burnable_init();\n\n        _isSaleActive = true;\n        _baseTokenURI = baseTokenURI;\n        _maxSupply = maxTokenSupply;\n        _pricePerToken = tokenPrice;\n    }\n\n    /// @dev This method should be invoked from WEB3 for minting a new NFT\n    function safeMint() public payable {\n        uint256 tokenId = _tokenIdCounter.current();\n\n        require(_isSaleActive, \"Sale must be active to mint NFT\");\n        require(\n            tokenId.add(1) <= _maxSupply,\n            \"Purchase would exceed max supply of NFTs\"\n        );\n        require(_pricePerToken <= msg.value, \"Ether value sent is not correct\");\n\n        _tokenIdCounter.increment();\n        _safeMint(msg.sender, tokenId);\n    }\n\n    /// @notice Returns a list of all NFT IDs assigned to an address.\n    /// @param _owner The owner whose NFTs we are interested in.\n    /// @dev This method MUST NEVER be called by smart contract code. First, it's fairly\n    ///  expensive (it walks the entire Kitty array looking for cats belonging to owner),\n    ///  but it also returns a dynamic array, which is only supported for web3 calls, and\n    ///  not contract-to-contract calls.\n    function tokensOfOwner(address _owner)\n        public\n        view\n        returns (uint256[] memory ownerTokens)\n    {\n        uint256 tokenCount = balanceOf(_owner);\n\n        if (tokenCount == 0) {\n            // Return an empty array\n            return new uint256[](0);\n        } else {\n            uint256[] memory result = new uint256[](tokenCount);\n            uint256 resultIndex = 0;\n\n            // We count on the fact that all cats have IDs starting at 1 and increasing\n            // sequentially up to the totalCat count.\n            uint256 index;\n            for (index = 0; index < tokenCount; index++) {\n                result[resultIndex] = tokenOfOwnerByIndex(_owner, index);\n                resultIndex++;\n            }\n            return result;\n        }\n    }\n\n    /// @dev This is a V2 method which allows owner to withdraw ethers\n    function withdraw() public onlyOwner {\n        uint256 balance = address(this).balance;\n        payable(owner()).transfer(balance);\n    }\n\n    function ethBalance() public view returns (uint256) {\n        return address(this).balance;\n    }\n\n    /// @param isActive Sale status param.\n    /// @dev This method should be invoked from WEB3 for setting sale active status\n    function setSaleActive(bool isActive) public onlyOwner {\n        _isSaleActive = isActive;\n    }\n\n    /// @param newBaseTokenURI New base token URI.\n    /// @dev This method should be invoked from WEB3 for setting base token URI\n    function setBaseURI(string memory newBaseTokenURI) public onlyOwner {\n        _baseTokenURI = newBaseTokenURI;\n        emit UriChanged();\n    }\n\n    function _beforeTokenTransfer(\n        address from,\n        address to,\n        uint256 tokenId\n    )\n        internal\n        override(ERC721Upgradeable, ERC721EnumerableUpgradeable)\n        whenNotPaused\n    {\n        super._beforeTokenTransfer(from, to, tokenId);\n    }\n\n    /// @dev This method should be invoked from WEB3 from owner's account to PAUSE the smart contract\n    function pause() public onlyOwner {\n        _pause();\n    }\n\n    /// @dev This method should be invoked from WEB3 from owner's account to UNPAUSE the smart contract\n    function unpause() public onlyOwner {\n        _unpause();\n    }\n\n    // The following functions are overrides required by Solidity.\n\n    function _burn(uint256 tokenId)\n        internal\n        override(ERC721Upgradeable, ERC721URIStorageUpgradeable)\n    {\n        super._burn(tokenId);\n    }\n\n    function tokenURI(uint256 tokenId)\n        public\n        view\n        override(ERC721Upgradeable, ERC721URIStorageUpgradeable)\n        returns (string memory)\n    {\n        return super.tokenURI(tokenId);\n    }\n\n    function supportsInterface(bytes4 interfaceId)\n        public\n        view\n        override(ERC721Upgradeable, ERC721EnumerableUpgradeable)\n        returns (bool)\n    {\n        return super.supportsInterface(interfaceId);\n    }\n\n    function _baseURI() internal view virtual override returns (string memory) {\n        return _baseTokenURI;\n    }\n\n    /// @dev This method should be invoked from WEB3 for getting current sale active status\n    function isSaleActive() public view returns (bool) {\n        return _isSaleActive;\n    }\n\n    /// @dev Method for getting price required for minting per NFT token\n    function pricePerToken() public view returns (uint256) {\n        return _pricePerToken;\n    }\n\n    /// @dev Method for getting max supply count\n    function maxSupply() public view returns (uint256) {\n        return _maxSupply;\n    }\n\n    /// @dev Method for getting base URI for tokens\n    function baseURI() public view returns (string memory) {\n        return _baseTokenURI;\n    }\n}\n",
  "sourcePath": "/Users/inflaton/code/emtech/nft-commerce/eth-upgradable-nft/contracts/MyNFTV3.sol",
  "compiler": {
    "name": "solc",
    "version": "0.8.19+commit.7dd6d404.Emscripten.clang"
  },
  "schemaVersion": "3.4.4",
  "updatedAt": "2023-03-05T04:04:39.305Z",
  "networkType": "ethereum",
  "devdoc": {
    "events": {
      "Approval(address,address,uint256)": {
        "details": "Emitted when `owner` enables `approved` to manage the `tokenId` token."
      },
      "ApprovalForAll(address,address,bool)": {
        "details": "Emitted when `owner` enables or disables (`approved`) `operator` to manage all of its assets."
      },
      "Paused(address)": {
        "details": "Emitted when the pause is triggered by `account`."
      },
      "Transfer(address,address,uint256)": {
        "details": "Emitted when `tokenId` token is transferred from `from` to `to`."
      },
      "Unpaused(address)": {
        "details": "Emitted when the pause is lifted by `account`."
      },
      "UriChanged()": {
        "details": "Emitted when the base URI is changed."
      }
    },
    "kind": "dev",
    "methods": {
      "approve(address,uint256)": {
        "details": "See {IERC721-approve}."
      },
      "balanceOf(address)": {
        "details": "See {IERC721-balanceOf}."
      },
      "baseURI()": {
        "details": "Method for getting base URI for tokens"
      },
      "burn(uint256)": {
        "details": "Burns `tokenId`. See {ERC721-_burn}. Requirements: - The caller must own `tokenId` or be an approved operator."
      },
      "constructor": {
        "custom:oz-upgrades-unsafe-allow": "constructor"
      },
      "getApproved(uint256)": {
        "details": "See {IERC721-getApproved}."
      },
      "isApprovedForAll(address,address)": {
        "details": "See {IERC721-isApprovedForAll}."
      },
      "isSaleActive()": {
        "details": "This method should be invoked from WEB3 for getting current sale active status"
      },
      "maxSupply()": {
        "details": "Method for getting max supply count"
      },
      "name()": {
        "details": "See {IERC721Metadata-name}."
      },
      "owner()": {
        "details": "Returns the address of the current owner."
      },
      "ownerOf(uint256)": {
        "details": "See {IERC721-ownerOf}."
      },
      "pause()": {
        "details": "This method should be invoked from WEB3 from owner's account to PAUSE the smart contract"
      },
      "paused()": {
        "details": "Returns true if the contract is paused, and false otherwise."
      },
      "pricePerToken()": {
        "details": "Method for getting price required for minting per NFT token"
      },
      "renounceOwnership()": {
        "details": "Leaves the contract without owner. It will not be possible to call `onlyOwner` functions anymore. Can only be called by the current owner. NOTE: Renouncing ownership will leave the contract without an owner, thereby removing any functionality that is only available to the owner."
      },
      "safeMint()": {
        "details": "This method should be invoked from WEB3 for minting a new NFT"
      },
      "safeTransferFrom(address,address,uint256)": {
        "details": "See {IERC721-safeTransferFrom}."
      },
      "safeTransferFrom(address,address,uint256,bytes)": {
        "details": "See {IERC721-safeTransferFrom}."
      },
      "setApprovalForAll(address,bool)": {
        "details": "See {IERC721-setApprovalForAll}."
      },
      "setBaseURI(string)": {
        "details": "This method should be invoked from WEB3 for setting base token URI",
        "params": {
          "newBaseTokenURI": "New base token URI."
        }
      },
      "setSaleActive(bool)": {
        "details": "This method should be invoked from WEB3 for setting sale active status",
        "params": {
          "isActive": "Sale status param."
        }
      },
      "symbol()": {
        "details": "See {IERC721Metadata-symbol}."
      },
      "tokenByIndex(uint256)": {
        "details": "See {IERC721Enumerable-tokenByIndex}."
      },
      "tokenOfOwnerByIndex(address,uint256)": {
        "details": "See {IERC721Enumerable-tokenOfOwnerByIndex}."
      },
      "tokensOfOwner(address)": {
        "details": "This method MUST NEVER be called by smart contract code. First, it's fairly  expensive (it walks the entire Kitty array looking for cats belonging to owner),  but it also returns a dynamic array, which is only supported for web3 calls, and  not contract-to-contract calls.",
        "params": {
          "_owner": "The owner whose NFTs we are interested in."
        }
      },
      "totalSupply()": {
        "details": "See {IERC721Enumerable-totalSupply}."
      },
      "transferFrom(address,address,uint256)": {
        "details": "See {IERC721-transferFrom}."
      },
      "transferOwnership(address)": {
        "details": "Transfers ownership of the contract to a new account (`newOwner`). Can only be called by the current owner."
      },
      "unpause()": {
        "details": "This method should be invoked from WEB3 from owner's account to UNPAUSE the smart contract"
      },
      "withdraw()": {
        "details": "This is a V2 method which allows owner to withdraw ethers"
      }
    },
    "version": 1
  },
  "userdoc": {
    "kind": "user",
    "methods": {
      "tokensOfOwner(address)": {
        "notice": "Returns a list of all NFT IDs assigned to an address."
      }
    },
    "version": 1
  }
}