{
  "contractName": "MyNFTV4",
  "abi": [
    {
      "inputs": [],
      "stateMutability": "nonpayable",
      "type": "constructor"
    },
    {
      "anonymous": false,
      "inputs": [
        {
          "indexed": true,
          "internalType": "address",
          "name": "owner",
          "type": "address"
        },
        {
          "indexed": true,
          "internalType": "address",
          "name": "approved",
          "type": "address"
        },
        {
          "indexed": true,
          "internalType": "uint256",
          "name": "tokenId",
          "type": "uint256"
        }
      ],
      "name": "Approval",
      "type": "event"
    },
    {
      "anonymous": false,
      "inputs": [
        {
          "indexed": true,
          "internalType": "address",
          "name": "owner",
          "type": "address"
        },
        {
          "indexed": true,
          "internalType": "address",
          "name": "operator",
          "type": "address"
        },
        {
          "indexed": false,
          "internalType": "bool",
          "name": "approved",
          "type": "bool"
        }
      ],
      "name": "ApprovalForAll",
      "type": "event"
    },
    {
      "anonymous": false,
      "inputs": [
        {
          "indexed": true,
          "internalType": "address",
          "name": "previousOwner",
          "type": "address"
        },
        {
          "indexed": true,
          "internalType": "address",
          "name": "newOwner",
          "type": "address"
        }
      ],
      "name": "OwnershipTransferred",
      "type": "event"
    },
    {
      "anonymous": false,
      "inputs": [
        {
          "indexed": false,
          "internalType": "address",
          "name": "account",
          "type": "address"
        }
      ],
      "name": "Paused",
      "type": "event"
    },
    {
      "anonymous": false,
      "inputs": [
        {
          "indexed": true,
          "internalType": "address",
          "name": "from",
          "type": "address"
        },
        {
          "indexed": true,
          "internalType": "address",
          "name": "to",
          "type": "address"
        },
        {
          "indexed": true,
          "internalType": "uint256",
          "name": "tokenId",
          "type": "uint256"
        }
      ],
      "name": "Transfer",
      "type": "event"
    },
    {
      "anonymous": false,
      "inputs": [
        {
          "indexed": false,
          "internalType": "address",
          "name": "account",
          "type": "address"
        }
      ],
      "name": "Unpaused",
      "type": "event"
    },
    {
      "anonymous": false,
      "inputs": [],
      "name": "UriChanged",
      "type": "event"
    },
    {
      "inputs": [
        {
          "internalType": "address",
          "name": "to",
          "type": "address"
        },
        {
          "internalType": "uint256",
          "name": "tokenId",
          "type": "uint256"
        }
      ],
      "name": "approve",
      "outputs": [],
      "stateMutability": "nonpayable",
      "type": "function"
    },
    {
      "inputs": [
        {
          "internalType": "address",
          "name": "owner",
          "type": "address"
        }
      ],
      "name": "balanceOf",
      "outputs": [
        {
          "internalType": "uint256",
          "name": "",
          "type": "uint256"
        }
      ],
      "stateMutability": "view",
      "type": "function",
      "constant": true
    },
    {
      "inputs": [
        {
          "internalType": "uint256",
          "name": "tokenId",
          "type": "uint256"
        }
      ],
      "name": "burn",
      "outputs": [],
      "stateMutability": "nonpayable",
      "type": "function"
    },
    {
      "inputs": [
        {
          "internalType": "uint256",
          "name": "tokenId",
          "type": "uint256"
        }
      ],
      "name": "getApproved",
      "outputs": [
        {
          "internalType": "address",
          "name": "",
          "type": "address"
        }
      ],
      "stateMutability": "view",
      "type": "function",
      "constant": true
    },
    {
      "inputs": [
        {
          "internalType": "address",
          "name": "owner",
          "type": "address"
        },
        {
          "internalType": "address",
          "name": "operator",
          "type": "address"
        }
      ],
      "name": "isApprovedForAll",
      "outputs": [
        {
          "internalType": "bool",
          "name": "",
          "type": "bool"
        }
      ],
      "stateMutability": "view",
      "type": "function",
      "constant": true
    },
    {
      "inputs": [],
      "name": "name",
      "outputs": [
        {
          "internalType": "string",
          "name": "",
          "type": "string"
        }
      ],
      "stateMutability": "view",
      "type": "function",
      "constant": true
    },
    {
      "inputs": [],
      "name": "owner",
      "outputs": [
        {
          "internalType": "address",
          "name": "",
          "type": "address"
        }
      ],
      "stateMutability": "view",
      "type": "function",
      "constant": true
    },
    {
      "inputs": [
        {
          "internalType": "uint256",
          "name": "tokenId",
          "type": "uint256"
        }
      ],
      "name": "ownerOf",
      "outputs": [
        {
          "internalType": "address",
          "name": "",
          "type": "address"
        }
      ],
      "stateMutability": "view",
      "type": "function",
      "constant": true
    },
    {
      "inputs": [],
      "name": "paused",
      "outputs": [
        {
          "internalType": "bool",
          "name": "",
          "type": "bool"
        }
      ],
      "stateMutability": "view",
      "type": "function",
      "constant": true
    },
    {
      "inputs": [],
      "name": "renounceOwnership",
      "outputs": [],
      "stateMutability": "nonpayable",
      "type": "function"
    },
    {
      "inputs": [
        {
          "internalType": "address",
          "name": "from",
          "type": "address"
        },
        {
          "internalType": "address",
          "name": "to",
          "type": "address"
        },
        {
          "internalType": "uint256",
          "name": "tokenId",
          "type": "uint256"
        }
      ],
      "name": "safeTransferFrom",
      "outputs": [],
      "stateMutability": "nonpayable",
      "type": "function"
    },
    {
      "inputs": [
        {
          "internalType": "address",
          "name": "from",
          "type": "address"
        },
        {
          "internalType": "address",
          "name": "to",
          "type": "address"
        },
        {
          "internalType": "uint256",
          "name": "tokenId",
          "type": "uint256"
        },
        {
          "internalType": "bytes",
          "name": "_data",
          "type": "bytes"
        }
      ],
      "name": "safeTransferFrom",
      "outputs": [],
      "stateMutability": "nonpayable",
      "type": "function"
    },
    {
      "inputs": [
        {
          "internalType": "address",
          "name": "operator",
          "type": "address"
        },
        {
          "internalType": "bool",
          "name": "approved",
          "type": "bool"
        }
      ],
      "name": "setApprovalForAll",
      "outputs": [],
      "stateMutability": "nonpayable",
      "type": "function"
    },
    {
      "inputs": [],
      "name": "symbol",
      "outputs": [
        {
          "internalType": "string",
          "name": "",
          "type": "string"
        }
      ],
      "stateMutability": "view",
      "type": "function",
      "constant": true
    },
    {
      "inputs": [
        {
          "internalType": "uint256",
          "name": "index",
          "type": "uint256"
        }
      ],
      "name": "tokenByIndex",
      "outputs": [
        {
          "internalType": "uint256",
          "name": "",
          "type": "uint256"
        }
      ],
      "stateMutability": "view",
      "type": "function",
      "constant": true
    },
    {
      "inputs": [
        {
          "internalType": "address",
          "name": "owner",
          "type": "address"
        },
        {
          "internalType": "uint256",
          "name": "index",
          "type": "uint256"
        }
      ],
      "name": "tokenOfOwnerByIndex",
      "outputs": [
        {
          "internalType": "uint256",
          "name": "",
          "type": "uint256"
        }
      ],
      "stateMutability": "view",
      "type": "function",
      "constant": true
    },
    {
      "inputs": [],
      "name": "totalSupply",
      "outputs": [
        {
          "internalType": "uint256",
          "name": "",
          "type": "uint256"
        }
      ],
      "stateMutability": "view",
      "type": "function",
      "constant": true
    },
    {
      "inputs": [
        {
          "internalType": "address",
          "name": "from",
          "type": "address"
        },
        {
          "internalType": "address",
          "name": "to",
          "type": "address"
        },
        {
          "internalType": "uint256",
          "name": "tokenId",
          "type": "uint256"
        }
      ],
      "name": "transferFrom",
      "outputs": [],
      "stateMutability": "nonpayable",
      "type": "function"
    },
    {
      "inputs": [
        {
          "internalType": "address",
          "name": "newOwner",
          "type": "address"
        }
      ],
      "name": "transferOwnership",
      "outputs": [],
      "stateMutability": "nonpayable",
      "type": "function"
    },
    {
      "inputs": [
        {
          "internalType": "string",
          "name": "name",
          "type": "string"
        },
        {
          "internalType": "string",
          "name": "symbol",
          "type": "string"
        },
        {
          "internalType": "string",
          "name": "baseTokenURI",
          "type": "string"
        },
        {
          "internalType": "uint256",
          "name": "maxTokenSupply",
          "type": "uint256"
        },
        {
          "internalType": "uint256",
          "name": "tokenPrice",
          "type": "uint256"
        }
      ],
      "name": "initialize",
      "outputs": [],
      "stateMutability": "nonpayable",
      "type": "function"
    },
    {
      "inputs": [],
      "name": "safeMint",
      "outputs": [],
      "stateMutability": "payable",
      "type": "function",
      "payable": true
    },
    {
      "inputs": [
        {
          "internalType": "address",
          "name": "_owner",
          "type": "address"
        }
      ],
      "name": "tokensOfOwner",
      "outputs": [
        {
          "internalType": "uint256[]",
          "name": "ownerTokens",
          "type": "uint256[]"
        }
      ],
      "stateMutability": "view",
      "type": "function",
      "constant": true
    },
    {
      "inputs": [],
      "name": "withdraw",
      "outputs": [],
      "stateMutability": "nonpayable",
      "type": "function"
    },
    {
      "inputs": [],
      "name": "ethBalance",
      "outputs": [
        {
          "internalType": "uint256",
          "name": "",
          "type": "uint256"
        }
      ],
      "stateMutability": "view",
      "type": "function",
      "constant": true
    },
    {
      "inputs": [
        {
          "internalType": "bool",
          "name": "isActive",
          "type": "bool"
        }
      ],
      "name": "setSaleActive",
      "outputs": [],
      "stateMutability": "nonpayable",
      "type": "function"
    },
    {
      "inputs": [
        {
          "internalType": "string",
          "name": "newBaseTokenURI",
          "type": "string"
        }
      ],
      "name": "setBaseURI",
      "outputs": [],
      "stateMutability": "nonpayable",
      "type": "function"
    },
    {
      "inputs": [],
      "name": "pause",
      "outputs": [],
      "stateMutability": "nonpayable",
      "type": "function"
    },
    {
      "inputs": [],
      "name": "unpause",
      "outputs": [],
      "stateMutability": "nonpayable",
      "type": "function"
    },
    {
      "inputs": [
        {
          "internalType": "uint256",
          "name": "tokenId",
          "type": "uint256"
        }
      ],
      "name": "burnToken",
      "outputs": [],
      "stateMutability": "nonpayable",
      "type": "function"
    },
    {
      "inputs": [
        {
          "internalType": "uint256",
          "name": "tokenId",
          "type": "uint256"
        }
      ],
      "name": "tokenURI",
      "outputs": [
        {
          "internalType": "string",
          "name": "",
          "type": "string"
        }
      ],
      "stateMutability": "view",
      "type": "function",
      "constant": true
    },
    {
      "inputs": [
        {
          "internalType": "bytes4",
          "name": "interfaceId",
          "type": "bytes4"
        }
      ],
      "name": "supportsInterface",
      "outputs": [
        {
          "internalType": "bool",
          "name": "",
          "type": "bool"
        }
      ],
      "stateMutability": "view",
      "type": "function",
      "constant": true
    },
    {
      "inputs": [],
      "name": "isSaleActive",
      "outputs": [
        {
          "internalType": "bool",
          "name": "",
          "type": "bool"
        }
      ],
      "stateMutability": "view",
      "type": "function",
      "constant": true
    },
    {
      "inputs": [],
      "name": "pricePerToken",
      "outputs": [
        {
          "internalType": "uint256",
          "name": "",
          "type": "uint256"
        }
      ],
      "stateMutability": "view",
      "type": "function",
      "constant": true
    },
    {
      "inputs": [],
      "name": "maxSupply",
      "outputs": [
        {
          "internalType": "uint256",
          "name": "",
          "type": "uint256"
        }
      ],
      "stateMutability": "view",
      "type": "function",
      "constant": true
    },
    {
      "inputs": [],
      "name": "baseURI",
      "outputs": [
        {
          "internalType": "string",
          "name": "",
          "type": "string"
        }
      ],
      "stateMutability": "view",
      "type": "function",
      "constant": true
    }
  ],
  "bytecode": "0x60806040523480156200001157600080fd5b50600054610100900460ff166200002f5760005460ff161562000033565b303b155b6200009b5760405162461bcd60e51b815260206004820152602e60248201527f496e697469616c697a61626c653a20636f6e747261637420697320616c72656160448201526d191e481a5b9a5d1a585b1a5e995960921b606482015260840160405180910390fd5b600054610100900460ff16158015620000be576000805461ffff19166101011790555b8015620000d1576000805461ff00191690555b5061308580620000e26000396000f3fe6080604052600436106102345760003560e01c80636871ee40116101385780638462151c116100b0578063b88d4fde1161007f578063d5abeb0111610064578063d5abeb01146105f5578063e985e9c51461060b578063f2fde38b1461065457600080fd5b8063b88d4fde146105b5578063c87b56dd146105d557600080fd5b80638462151c146105345780638da5cb5b1461056157806395d89b4114610580578063a22cb4651461059557600080fd5b80637b1b1de61161010757806380ddd09f116100ec57806380ddd09f146104df578063841718a6146104ff5780638456cb591461051f57600080fd5b80637b1b1de6146104a95780637b47ec1a146104bf57600080fd5b80636871ee40146104575780636c0360eb1461045f57806370a0823114610474578063715018a61461049457600080fd5b80633f4ba83a116101cb5780634f6ccce71161019a578063564566a81161017f578063564566a8146104065780635c975abb1461041f5780636352211e1461043757600080fd5b80634f6ccce7146103c657806355f804b3146103e657600080fd5b80633f4ba83a1461035e57806342842e0e1461037357806342966c68146103935780634e6630b0146103b357600080fd5b806318160ddd1161020757806318160ddd146102ea57806323b872dd146103095780632f745c59146103295780633ccfd60b1461034957600080fd5b806301ffc9a71461023957806306fdde031461026e578063081812fc14610290578063095ea7b3146102c8575b600080fd5b34801561024557600080fd5b506102596102543660046129d5565b610674565b60405190151581526020015b60405180910390f35b34801561027a57600080fd5b50610283610685565b6040516102659190612a42565b34801561029c57600080fd5b506102b06102ab366004612a55565b610717565b6040516001600160a01b039091168152602001610265565b3480156102d457600080fd5b506102e86102e3366004612a8a565b6107b1565b005b3480156102f657600080fd5b506099545b604051908152602001610265565b34801561031557600080fd5b506102e8610324366004612ab4565b6108e2565b34801561033557600080fd5b506102fb610344366004612a8a565b61096a565b34801561035557600080fd5b506102e8610a12565b34801561036a57600080fd5b506102e8610abd565b34801561037f57600080fd5b506102e861038e366004612ab4565b610b22565b34801561039f57600080fd5b506102e86103ae366004612a55565b610b3d565b3480156103bf57600080fd5b50476102fb565b3480156103d257600080fd5b506102fb6103e1366004612a55565b610bc4565b3480156103f257600080fd5b506102e8610401366004612b9c565b610c68565b34801561041257600080fd5b506101925460ff16610259565b34801561042b57600080fd5b5060fb5460ff16610259565b34801561044357600080fd5b506102b0610452366004612a55565b610cfd565b6102e8610d88565b34801561046b57600080fd5b50610283610ed9565b34801561048057600080fd5b506102fb61048f366004612bd1565b610ee9565b3480156104a057600080fd5b506102e8610f83565b3480156104b557600080fd5b50610193546102fb565b3480156104cb57600080fd5b506102e86104da366004612a55565b610bb8565b3480156104eb57600080fd5b506102e86104fa366004612bec565b610fe8565b34801561050b57600080fd5b506102e861051a366004612c96565b61110f565b34801561052b57600080fd5b506102e861117e565b34801561054057600080fd5b5061055461054f366004612bd1565b6111e1565b6040516102659190612cb1565b34801561056d57600080fd5b5061012d546001600160a01b03166102b0565b34801561058c57600080fd5b506102836112b8565b3480156105a157600080fd5b506102e86105b0366004612cf5565b6112c7565b3480156105c157600080fd5b506102e86105d0366004612d28565b6112d2565b3480156105e157600080fd5b506102836105f0366004612a55565b611360565b34801561060157600080fd5b50610194546102fb565b34801561061757600080fd5b50610259610626366004612da4565b6001600160a01b039182166000908152606a6020908152604080832093909416825291909152205460ff1690565b34801561066057600080fd5b506102e861066f366004612bd1565b61136b565b600061067f8261144b565b92915050565b60606065805461069490612dce565b80601f01602080910402602001604051908101604052809291908181526020018280546106c090612dce565b801561070d5780601f106106e25761010080835404028352916020019161070d565b820191906000526020600020905b8154815290600101906020018083116106f057829003601f168201915b5050505050905090565b6000818152606760205260408120546001600160a01b03166107955760405162461bcd60e51b815260206004820152602c60248201527f4552433732313a20617070726f76656420717565727920666f72206e6f6e657860448201526b34b9ba32b73a103a37b5b2b760a11b60648201526084015b60405180910390fd5b506000908152606960205260409020546001600160a01b031690565b60006107bc82610cfd565b9050806001600160a01b0316836001600160a01b0316036108455760405162461bcd60e51b815260206004820152602160248201527f4552433732313a20617070726f76616c20746f2063757272656e74206f776e6560448201527f7200000000000000000000000000000000000000000000000000000000000000606482015260840161078c565b336001600160a01b038216148061086157506108618133610626565b6108d35760405162461bcd60e51b815260206004820152603860248201527f4552433732313a20617070726f76652063616c6c6572206973206e6f74206f7760448201527f6e6572206e6f7220617070726f76656420666f7220616c6c0000000000000000606482015260840161078c565b6108dd8383611489565b505050565b6108ed335b826114f7565b61095f5760405162461bcd60e51b815260206004820152603160248201527f4552433732313a207472616e736665722063616c6c6572206973206e6f74206f60448201527f776e6572206e6f7220617070726f766564000000000000000000000000000000606482015260840161078c565b6108dd8383836115ee565b600061097583610ee9565b82106109e95760405162461bcd60e51b815260206004820152602b60248201527f455243373231456e756d657261626c653a206f776e657220696e646578206f7560448201527f74206f6620626f756e6473000000000000000000000000000000000000000000606482015260840161078c565b506001600160a01b03919091166000908152609760209081526040808320938352929052205490565b61012d546001600160a01b03163314610a6d5760405162461bcd60e51b815260206004820181905260248201527f4f776e61626c653a2063616c6c6572206973206e6f7420746865206f776e6572604482015260640161078c565b47610a8161012d546001600160a01b031690565b6001600160a01b03166108fc829081150290604051600060405180830381858888f19350505050158015610ab9573d6000803e3d6000fd5b5050565b61012d546001600160a01b03163314610b185760405162461bcd60e51b815260206004820181905260248201527f4f776e61626c653a2063616c6c6572206973206e6f7420746865206f776e6572604482015260640161078c565b610b206117c6565b565b6108dd838383604051806020016040528060008152506112d2565b610b46336108e7565b610bb85760405162461bcd60e51b815260206004820152603060248201527f4552433732314275726e61626c653a2063616c6c6572206973206e6f74206f7760448201527f6e6572206e6f7220617070726f76656400000000000000000000000000000000606482015260840161078c565b610bc181611862565b50565b6000610bcf60995490565b8210610c435760405162461bcd60e51b815260206004820152602c60248201527f455243373231456e756d657261626c653a20676c6f62616c20696e646578206f60448201527f7574206f6620626f756e64730000000000000000000000000000000000000000606482015260840161078c565b60998281548110610c5657610c56612e02565b90600052602060002001549050919050565b61012d546001600160a01b03163314610cc35760405162461bcd60e51b815260206004820181905260248201527f4f776e61626c653a2063616c6c6572206973206e6f7420746865206f776e6572604482015260640161078c565b610195610cd08282612e5e565b506040517fc20fc16a841df46e2f670ae554047dbc09e2955d620062501289021c445917a190600090a150565b6000818152606760205260408120546001600160a01b03168061067f5760405162461bcd60e51b815260206004820152602960248201527f4552433732313a206f776e657220717565727920666f72206e6f6e657869737460448201527f656e7420746f6b656e0000000000000000000000000000000000000000000000606482015260840161078c565b6000610d946101915490565b6101925490915060ff16610dea5760405162461bcd60e51b815260206004820152601f60248201527f53616c65206d7573742062652061637469766520746f206d696e74204e465400604482015260640161078c565b61019454610df982600161186b565b1115610e6d5760405162461bcd60e51b815260206004820152602860248201527f507572636861736520776f756c6420657863656564206d617820737570706c7960448201527f206f66204e465473000000000000000000000000000000000000000000000000606482015260840161078c565b34610193541115610ec05760405162461bcd60e51b815260206004820152601f60248201527f45746865722076616c75652073656e74206973206e6f7420636f727265637400604482015260640161078c565b610ecf61019180546001019055565b610bc1338261187e565b6060610195805461069490612dce565b60006001600160a01b038216610f675760405162461bcd60e51b815260206004820152602a60248201527f4552433732313a2062616c616e636520717565727920666f7220746865207a6560448201527f726f206164647265737300000000000000000000000000000000000000000000606482015260840161078c565b506001600160a01b031660009081526068602052604090205490565b61012d546001600160a01b03163314610fde5760405162461bcd60e51b815260206004820181905260248201527f4f776e61626c653a2063616c6c6572206973206e6f7420746865206f776e6572604482015260640161078c565b610b206000611898565b600054610100900460ff166110035760005460ff1615611007565b303b155b6110795760405162461bcd60e51b815260206004820152602e60248201527f496e697469616c697a61626c653a20636f6e747261637420697320616c72656160448201527f647920696e697469616c697a6564000000000000000000000000000000000000606482015260840161078c565b600054610100900460ff1615801561109b576000805461ffff19166101011790555b6110a586866118eb565b6110ad611970565b6110b5611970565b6110bd6119f3565b6110c5611a6e565b6110cd611970565b610192805460ff191660011790556101956110e88582612e5e565b506101948390556101938290558015611107576000805461ff00191690555b505050505050565b61012d546001600160a01b0316331461116a5760405162461bcd60e51b815260206004820181905260248201527f4f776e61626c653a2063616c6c6572206973206e6f7420746865206f776e6572604482015260640161078c565b610192805460ff1916911515919091179055565b61012d546001600160a01b031633146111d95760405162461bcd60e51b815260206004820181905260248201527f4f776e61626c653a2063616c6c6572206973206e6f7420746865206f776e6572604482015260640161078c565b610b20611ae9565b606060006111ee83610ee9565b90508060000361120e575050604080516000815260208101909152919050565b60008167ffffffffffffffff81111561122957611229612af0565b604051908082528060200260200182016040528015611252578160200160208202803683370190505b5090506000805b838110156112a85761126b868261096a565b83838151811061127d5761127d612e02565b60209081029190910101528161129281612f34565b92505080806112a090612f34565b915050611259565b5090949350505050565b50919050565b60606066805461069490612dce565b610ab9338383611b71565b6112dc33836114f7565b61134e5760405162461bcd60e51b815260206004820152603160248201527f4552433732313a207472616e736665722063616c6c6572206973206e6f74206f60448201527f776e6572206e6f7220617070726f766564000000000000000000000000000000606482015260840161078c565b61135a84848484611c3f565b50505050565b606061067f82611cbd565b61012d546001600160a01b031633146113c65760405162461bcd60e51b815260206004820181905260248201527f4f776e61626c653a2063616c6c6572206973206e6f7420746865206f776e6572604482015260640161078c565b6001600160a01b0381166114425760405162461bcd60e51b815260206004820152602660248201527f4f776e61626c653a206e6577206f776e657220697320746865207a65726f206160448201527f6464726573730000000000000000000000000000000000000000000000000000606482015260840161078c565b610bc181611898565b60006001600160e01b031982167f780e9d6300000000000000000000000000000000000000000000000000000000148061067f575061067f82611e3a565b600081815260696020526040902080546001600160a01b0319166001600160a01b03841690811790915581906114be82610cfd565b6001600160a01b03167f8c5be1e5ebec7d5bd14f71427d1e84f3dd0314c0f7b2291e5b200ac8c7c3b92560405160405180910390a45050565b6000818152606760205260408120546001600160a01b03166115705760405162461bcd60e51b815260206004820152602c60248201527f4552433732313a206f70657261746f7220717565727920666f72206e6f6e657860448201526b34b9ba32b73a103a37b5b2b760a11b606482015260840161078c565b600061157b83610cfd565b9050806001600160a01b0316846001600160a01b031614806115b65750836001600160a01b03166115ab84610717565b6001600160a01b0316145b806115e657506001600160a01b038082166000908152606a602090815260408083209388168352929052205460ff165b949350505050565b826001600160a01b031661160182610cfd565b6001600160a01b03161461167d5760405162461bcd60e51b815260206004820152602960248201527f4552433732313a207472616e73666572206f6620746f6b656e2074686174206960448201527f73206e6f74206f776e0000000000000000000000000000000000000000000000606482015260840161078c565b6001600160a01b0382166116f85760405162461bcd60e51b8152602060048201526024808201527f4552433732313a207472616e7366657220746f20746865207a65726f2061646460448201527f7265737300000000000000000000000000000000000000000000000000000000606482015260840161078c565b611703838383611ed5565b61170e600082611489565b6001600160a01b0383166000908152606860205260408120805460019290611737908490612f4d565b90915550506001600160a01b0382166000908152606860205260408120805460019290611765908490612f60565b909155505060008181526067602052604080822080546001600160a01b0319166001600160a01b0386811691821790925591518493918716917fddf252ad1be2c89b69c2b068fc378daa952ba7f163c4a11628f55a4df523b3ef91a4505050565b60fb5460ff166118185760405162461bcd60e51b815260206004820152601460248201527f5061757361626c653a206e6f7420706175736564000000000000000000000000604482015260640161078c565b60fb805460ff191690557f5db9ee0a495bf2e6ff9c91a7834c1ba4fdd244a5e8aa4e537bd38aeae4b073aa335b6040516001600160a01b03909116815260200160405180910390a1565b610bc181611f33565b60006118778284612f60565b9392505050565b610ab9828260405180602001604052806000815250611f73565b61012d80546001600160a01b038381166001600160a01b0319831681179093556040519116919082907f8be0079c531659141344cd1fd0a4f28419497f9722a3daafe3b4186f6b6457e090600090a35050565b600054610100900460ff166119565760405162461bcd60e51b815260206004820152602b60248201527f496e697469616c697a61626c653a20636f6e7472616374206973206e6f74206960448201526a6e697469616c697a696e6760a81b606482015260840161078c565b61195e611ff1565b611966611ff1565b610ab9828261205c565b600054610100900460ff166119db5760405162461bcd60e51b815260206004820152602b60248201527f496e697469616c697a61626c653a20636f6e7472616374206973206e6f74206960448201526a6e697469616c697a696e6760a81b606482015260840161078c565b6119e3611ff1565b6119eb611ff1565b610b20611ff1565b600054610100900460ff16611a5e5760405162461bcd60e51b815260206004820152602b60248201527f496e697469616c697a61626c653a20636f6e7472616374206973206e6f74206960448201526a6e697469616c697a696e6760a81b606482015260840161078c565b611a66611ff1565b610b206120e0565b600054610100900460ff16611ad95760405162461bcd60e51b815260206004820152602b60248201527f496e697469616c697a61626c653a20636f6e7472616374206973206e6f74206960448201526a6e697469616c697a696e6760a81b606482015260840161078c565b611ae1611ff1565b610b20612157565b60fb5460ff1615611b3c5760405162461bcd60e51b815260206004820152601060248201527f5061757361626c653a2070617573656400000000000000000000000000000000604482015260640161078c565b60fb805460ff191660011790557f62e78cea01bee320cd4e420270b5ea74000d11b0c9f74754ebdbfc544b05a2586118453390565b816001600160a01b0316836001600160a01b031603611bd25760405162461bcd60e51b815260206004820152601960248201527f4552433732313a20617070726f766520746f2063616c6c657200000000000000604482015260640161078c565b6001600160a01b038381166000818152606a6020908152604080832094871680845294825291829020805460ff191686151590811790915591519182527f17307eab39ab6107e8899845ad3d59bd9653f200f220920489ca2b5937696c31910160405180910390a3505050565b611c4a8484846115ee565b611c56848484846121cb565b61135a5760405162461bcd60e51b815260206004820152603260248201527f4552433732313a207472616e7366657220746f206e6f6e20455243373231526560448201527131b2b4bb32b91034b6b83632b6b2b73a32b960711b606482015260840161078c565b6000818152606760205260409020546060906001600160a01b0316611d4a5760405162461bcd60e51b815260206004820152603160248201527f45524337323155524953746f726167653a2055524920717565727920666f722060448201527f6e6f6e6578697374656e7420746f6b656e000000000000000000000000000000606482015260840161078c565b600082815260c9602052604081208054611d6390612dce565b80601f0160208091040260200160405190810160405280929190818152602001828054611d8f90612dce565b8015611ddc5780601f10611db157610100808354040283529160200191611ddc565b820191906000526020600020905b815481529060010190602001808311611dbf57829003601f168201915b505050505090506000611ded610ed9565b90508051600003611dff575092915050565b815115611e31578082604051602001611e19929190612f73565b60405160208183030381529060405292505050919050565b6115e684612317565b60006001600160e01b031982167f80ac58cd000000000000000000000000000000000000000000000000000000001480611e9d57506001600160e01b031982167f5b5e139f00000000000000000000000000000000000000000000000000000000145b8061067f57507f01ffc9a7000000000000000000000000000000000000000000000000000000006001600160e01b031983161461067f565b60fb5460ff1615611f285760405162461bcd60e51b815260206004820152601060248201527f5061757361626c653a2070617573656400000000000000000000000000000000604482015260640161078c565b6108dd8383836123ff565b611f3c816124b7565b600081815260c9602052604090208054611f5590612dce565b159050610bc157600081815260c960205260408120610bc191612971565b611f7d838361255e565b611f8a60008484846121cb565b6108dd5760405162461bcd60e51b815260206004820152603260248201527f4552433732313a207472616e7366657220746f206e6f6e20455243373231526560448201527131b2b4bb32b91034b6b83632b6b2b73a32b960711b606482015260840161078c565b600054610100900460ff16610b205760405162461bcd60e51b815260206004820152602b60248201527f496e697469616c697a61626c653a20636f6e7472616374206973206e6f74206960448201526a6e697469616c697a696e6760a81b606482015260840161078c565b600054610100900460ff166120c75760405162461bcd60e51b815260206004820152602b60248201527f496e697469616c697a61626c653a20636f6e7472616374206973206e6f74206960448201526a6e697469616c697a696e6760a81b606482015260840161078c565b60656120d38382612e5e565b5060666108dd8282612e5e565b600054610100900460ff1661214b5760405162461bcd60e51b815260206004820152602b60248201527f496e697469616c697a61626c653a20636f6e7472616374206973206e6f74206960448201526a6e697469616c697a696e6760a81b606482015260840161078c565b60fb805460ff19169055565b600054610100900460ff166121c25760405162461bcd60e51b815260206004820152602b60248201527f496e697469616c697a61626c653a20636f6e7472616374206973206e6f74206960448201526a6e697469616c697a696e6760a81b606482015260840161078c565b610b2033611898565b60006001600160a01b0384163b1561230c57604051630a85bd0160e11b81526001600160a01b0385169063150b7a029061220f903390899088908890600401612fa2565b6020604051808303816000875af192505050801561224a575060408051601f3d908101601f1916820190925261224791810190612fde565b60015b6122f2573d808015612278576040519150601f19603f3d011682016040523d82523d6000602084013e61227d565b606091505b5080516000036122ea5760405162461bcd60e51b815260206004820152603260248201527f4552433732313a207472616e7366657220746f206e6f6e20455243373231526560448201527131b2b4bb32b91034b6b83632b6b2b73a32b960711b606482015260840161078c565b805181602001fd5b6001600160e01b031916630a85bd0160e11b1490506115e6565b506001949350505050565b6000818152606760205260409020546060906001600160a01b03166123a45760405162461bcd60e51b815260206004820152602f60248201527f4552433732314d657461646174613a2055524920717565727920666f72206e6f60448201527f6e6578697374656e7420746f6b656e0000000000000000000000000000000000606482015260840161078c565b60006123ae610ed9565b905060008151116123ce5760405180602001604052806000815250611877565b806123d8846126ac565b6040516020016123e9929190612f73565b6040516020818303038152906040529392505050565b6001600160a01b03831661245a5761245581609980546000838152609a60205260408120829055600182018355919091527f72a152ddfb8e864297c917af52ea6c1c68aead0fee1a62673fcc7e0c94979d000155565b61247d565b816001600160a01b0316836001600160a01b03161461247d5761247d83826127e1565b6001600160a01b038216612494576108dd8161287e565b826001600160a01b0316826001600160a01b0316146108dd576108dd828261292d565b60006124c282610cfd565b90506124d081600084611ed5565b6124db600083611489565b6001600160a01b0381166000908152606860205260408120805460019290612504908490612f4d565b909155505060008281526067602052604080822080546001600160a01b0319169055518391906001600160a01b038416907fddf252ad1be2c89b69c2b068fc378daa952ba7f163c4a11628f55a4df523b3ef908390a45050565b6001600160a01b0382166125b45760405162461bcd60e51b815260206004820181905260248201527f4552433732313a206d696e7420746f20746865207a65726f2061646472657373604482015260640161078c565b6000818152606760205260409020546001600160a01b0316156126195760405162461bcd60e51b815260206004820152601c60248201527f4552433732313a20746f6b656e20616c7265616479206d696e74656400000000604482015260640161078c565b61262560008383611ed5565b6001600160a01b038216600090815260686020526040812080546001929061264e908490612f60565b909155505060008181526067602052604080822080546001600160a01b0319166001600160a01b03861690811790915590518392907fddf252ad1be2c89b69c2b068fc378daa952ba7f163c4a11628f55a4df523b3ef908290a45050565b6060816000036126ef57505060408051808201909152600181527f3000000000000000000000000000000000000000000000000000000000000000602082015290565b8160005b8115612719578061270381612f34565b91506127129050600a83613011565b91506126f3565b60008167ffffffffffffffff81111561273457612734612af0565b6040519080825280601f01601f19166020018201604052801561275e576020820181803683370190505b5090505b84156115e657612773600183612f4d565b9150612780600a86613025565b61278b906030612f60565b60f81b8183815181106127a0576127a0612e02565b60200101907effffffffffffffffffffffffffffffffffffffffffffffffffffffffffffff1916908160001a9053506127da600a86613011565b9450612762565b600060016127ee84610ee9565b6127f89190612f4d565b60008381526098602052604090205490915080821461284b576001600160a01b03841660009081526097602090815260408083208584528252808320548484528184208190558352609890915290208190555b5060009182526098602090815260408084208490556001600160a01b039094168352609781528383209183525290812055565b60995460009061289090600190612f4d565b6000838152609a6020526040812054609980549394509092849081106128b8576128b8612e02565b9060005260206000200154905080609983815481106128d9576128d9612e02565b6000918252602080832090910192909255828152609a9091526040808220849055858252812055609980548061291157612911613039565b6001900381819060005260206000200160009055905550505050565b600061293883610ee9565b6001600160a01b039093166000908152609760209081526040808320868452825280832085905593825260989052919091209190915550565b50805461297d90612dce565b6000825580601f1061298d575050565b601f016020900490600052602060002090810190610bc191905b808211156129bb57600081556001016129a7565b5090565b6001600160e01b031981168114610bc157600080fd5b6000602082840312156129e757600080fd5b8135611877816129bf565b60005b83811015612a0d5781810151838201526020016129f5565b50506000910152565b60008151808452612a2e8160208601602086016129f2565b601f01601f19169290920160200192915050565b6020815260006118776020830184612a16565b600060208284031215612a6757600080fd5b5035919050565b80356001600160a01b0381168114612a8557600080fd5b919050565b60008060408385031215612a9d57600080fd5b612aa683612a6e565b946020939093013593505050565b600080600060608486031215612ac957600080fd5b612ad284612a6e565b9250612ae060208501612a6e565b9150604084013590509250925092565b634e487b7160e01b600052604160045260246000fd5b600067ffffffffffffffff80841115612b2157612b21612af0565b604051601f8501601f19908116603f01168101908282118183101715612b4957612b49612af0565b81604052809350858152868686011115612b6257600080fd5b858560208301376000602087830101525050509392505050565b600082601f830112612b8d57600080fd5b61187783833560208501612b06565b600060208284031215612bae57600080fd5b813567ffffffffffffffff811115612bc557600080fd5b6115e684828501612b7c565b600060208284031215612be357600080fd5b61187782612a6e565b600080600080600060a08688031215612c0457600080fd5b853567ffffffffffffffff80821115612c1c57600080fd5b612c2889838a01612b7c565b96506020880135915080821115612c3e57600080fd5b612c4a89838a01612b7c565b95506040880135915080821115612c6057600080fd5b50612c6d88828901612b7c565b9598949750949560608101359550608001359392505050565b80358015158114612a8557600080fd5b600060208284031215612ca857600080fd5b61187782612c86565b6020808252825182820181905260009190848201906040850190845b81811015612ce957835183529284019291840191600101612ccd565b50909695505050505050565b60008060408385031215612d0857600080fd5b612d1183612a6e565b9150612d1f60208401612c86565b90509250929050565b60008060008060808587031215612d3e57600080fd5b612d4785612a6e565b9350612d5560208601612a6e565b925060408501359150606085013567ffffffffffffffff811115612d7857600080fd5b8501601f81018713612d8957600080fd5b612d9887823560208401612b06565b91505092959194509250565b60008060408385031215612db757600080fd5b612dc083612a6e565b9150612d1f60208401612a6e565b600181811c90821680612de257607f821691505b6020821081036112b257634e487b7160e01b600052602260045260246000fd5b634e487b7160e01b600052603260045260246000fd5b601f8211156108dd57600081815260208120601f850160051c81016020861015612e3f5750805b601f850160051c820191505b8181101561110757828155600101612e4b565b815167ffffffffffffffff811115612e7857612e78612af0565b612e8c81612e868454612dce565b84612e18565b602080601f831160018114612ec15760008415612ea95750858301515b600019600386901b1c1916600185901b178555611107565b600085815260208120601f198616915b82811015612ef057888601518255948401946001909101908401612ed1565b5085821015612f0e5787850151600019600388901b60f8161c191681555b5050505050600190811b01905550565b634e487b7160e01b600052601160045260246000fd5b600060018201612f4657612f46612f1e565b5060010190565b8181038181111561067f5761067f612f1e565b8082018082111561067f5761067f612f1e565b60008351612f858184602088016129f2565b835190830190612f998183602088016129f2565b01949350505050565b60006001600160a01b03808716835280861660208401525083604083015260806060830152612fd46080830184612a16565b9695505050505050565b600060208284031215612ff057600080fd5b8151611877816129bf565b634e487b7160e01b600052601260045260246000fd5b60008261302057613020612ffb565b500490565b60008261303457613034612ffb565b500690565b634e487b7160e01b600052603160045260246000fdfea26469706673582212208377cf4c5340ac47ee510c66464839d87d39f173ded280f61b46a30a0842ff1f64736f6c63430008130033",
  "immutableReferences": {},
  "source": "// SPDX-License-Identifier: MIT\npragma solidity ^0.8.2;\n\nimport \"@openzeppelin/contracts-upgradeable/token/ERC721/ERC721Upgradeable.sol\";\nimport \"@openzeppelin/contracts-upgradeable/token/ERC721/extensions/ERC721EnumerableUpgradeable.sol\";\nimport \"@openzeppelin/contracts-upgradeable/token/ERC721/extensions/ERC721URIStorageUpgradeable.sol\";\nimport \"@openzeppelin/contracts-upgradeable/security/PausableUpgradeable.sol\";\nimport \"@openzeppelin/contracts-upgradeable/access/OwnableUpgradeable.sol\";\nimport \"@openzeppelin/contracts-upgradeable/token/ERC721/extensions/ERC721BurnableUpgradeable.sol\";\nimport \"@openzeppelin/contracts-upgradeable/proxy/utils/Initializable.sol\";\nimport \"@openzeppelin/contracts-upgradeable/utils/CountersUpgradeable.sol\";\nimport \"@openzeppelin/contracts-upgradeable/utils/math/SafeMathUpgradeable.sol\";\n\ncontract MyNFTV4 is\n    Initializable,\n    ERC721Upgradeable,\n    ERC721EnumerableUpgradeable,\n    ERC721URIStorageUpgradeable,\n    PausableUpgradeable,\n    OwnableUpgradeable,\n    ERC721BurnableUpgradeable\n{\n    using CountersUpgradeable for CountersUpgradeable.Counter;\n    using SafeMathUpgradeable for uint256;\n\n    CountersUpgradeable.Counter private _tokenIdCounter;\n\n    // Contract private variables\n    bool private _isSaleActive;\n    uint256 private _pricePerToken;\n    uint256 private _maxSupply;\n    string private _baseTokenURI;\n\n    /**\n     * @dev Emitted when the base URI is changed.\n     */\n    event UriChanged();\n\n    /// @custom:oz-upgrades-unsafe-allow constructor\n    constructor() initializer {}\n\n    function initialize(\n        string memory name,\n        string memory symbol,\n        string memory baseTokenURI,\n        uint256 maxTokenSupply,\n        uint256 tokenPrice\n    ) public initializer {\n        __ERC721_init(name, symbol);\n        __ERC721Enumerable_init();\n        __ERC721URIStorage_init();\n        __Pausable_init();\n        __Ownable_init();\n        __ERC721Burnable_init();\n\n        _isSaleActive = true;\n        _baseTokenURI = baseTokenURI;\n        _maxSupply = maxTokenSupply;\n        _pricePerToken = tokenPrice;\n    }\n\n    /// @dev This method should be invoked from WEB3 for minting a new NFT\n    function safeMint() public payable {\n        uint256 tokenId = _tokenIdCounter.current();\n\n        require(_isSaleActive, \"Sale must be active to mint NFT\");\n        require(\n            tokenId.add(1) <= _maxSupply,\n            \"Purchase would exceed max supply of NFTs\"\n        );\n        require(_pricePerToken <= msg.value, \"Ether value sent is not correct\");\n\n        _tokenIdCounter.increment();\n        _safeMint(msg.sender, tokenId);\n    }\n\n    /// @notice Returns a list of all NFT IDs assigned to an address.\n    /// @param _owner The owner whose NFTs we are interested in.\n    /// @dev This method MUST NEVER be called by smart contract code. First, it's fairly\n    ///  expensive (it walks the entire Kitty array looking for cats belonging to owner),\n    ///  but it also returns a dynamic array, which is only supported for web3 calls, and\n    ///  not contract-to-contract calls.\n    function tokensOfOwner(address _owner)\n        public\n        view\n        returns (uint256[] memory ownerTokens)\n    {\n        uint256 tokenCount = balanceOf(_owner);\n\n        if (tokenCount == 0) {\n            // Return an empty array\n            return new uint256[](0);\n        } else {\n            uint256[] memory result = new uint256[](tokenCount);\n            uint256 resultIndex = 0;\n\n            // We count on the fact that all cats have IDs starting at 1 and increasing\n            // sequentially up to the totalCat count.\n            uint256 index;\n            for (index = 0; index < tokenCount; index++) {\n                result[resultIndex] = tokenOfOwnerByIndex(_owner, index);\n                resultIndex++;\n            }\n            return result;\n        }\n    }\n\n    /// @dev This is a V2 method which allows owner to withdraw ethers\n    function withdraw() public onlyOwner {\n        uint256 balance = address(this).balance;\n        payable(owner()).transfer(balance);\n    }\n\n    function ethBalance() public view returns (uint256) {\n        return address(this).balance;\n    }\n\n    /// @param isActive Sale status param.\n    /// @dev This method should be invoked from WEB3 for setting sale active status\n    function setSaleActive(bool isActive) public onlyOwner {\n        _isSaleActive = isActive;\n    }\n\n    /// @param newBaseTokenURI New base token URI.\n    /// @dev This method should be invoked from WEB3 for setting base token URI\n    function setBaseURI(string memory newBaseTokenURI) public onlyOwner {\n        _baseTokenURI = newBaseTokenURI;\n        emit UriChanged();\n    }\n\n    function _beforeTokenTransfer(\n        address from,\n        address to,\n        uint256 tokenId\n    )\n        internal\n        override(ERC721Upgradeable, ERC721EnumerableUpgradeable)\n        whenNotPaused\n    {\n        super._beforeTokenTransfer(from, to, tokenId);\n    }\n\n    /// @dev This method should be invoked from WEB3 from owner's account to PAUSE the smart contract\n    function pause() public onlyOwner {\n        _pause();\n    }\n\n    /// @dev This method should be invoked from WEB3 from owner's account to UNPAUSE the smart contract\n    function unpause() public onlyOwner {\n        _unpause();\n    }\n\n    function burnToken(uint256 tokenId) public {\n        _burn(tokenId);\n    }\n\n    // The following functions are overrides required by Solidity.\n\n    function _burn(uint256 tokenId)\n        internal\n        override(ERC721Upgradeable, ERC721URIStorageUpgradeable)\n    {\n        super._burn(tokenId);\n    }\n\n    function tokenURI(uint256 tokenId)\n        public\n        view\n        override(ERC721Upgradeable, ERC721URIStorageUpgradeable)\n        returns (string memory)\n    {\n        return super.tokenURI(tokenId);\n    }\n\n    function supportsInterface(bytes4 interfaceId)\n        public\n        view\n        override(ERC721Upgradeable, ERC721EnumerableUpgradeable)\n        returns (bool)\n    {\n        return super.supportsInterface(interfaceId);\n    }\n\n    function _baseURI() internal view virtual override returns (string memory) {\n        return _baseTokenURI;\n    }\n\n    /// @dev This method should be invoked from WEB3 for getting current sale active status\n    function isSaleActive() public view returns (bool) {\n        return _isSaleActive;\n    }\n\n    /// @dev Method for getting price required for minting per NFT token\n    function pricePerToken() public view returns (uint256) {\n        return _pricePerToken;\n    }\n\n    /// @dev Method for getting max supply count\n    function maxSupply() public view returns (uint256) {\n        return _maxSupply;\n    }\n\n    /// @dev Method for getting base URI for tokens\n    function baseURI() public view returns (string memory) {\n        return _baseTokenURI;\n    }\n}\n",
  "sourcePath": "/Users/inflaton/code/emtech/nft-commerce/eth-upgradable-nft/contracts/MyNFTV4.sol",
  "compiler": {
    "name": "solc",
    "version": "0.8.19+commit.7dd6d404.Emscripten.clang"
  },
  "schemaVersion": "3.4.4",
  "updatedAt": "2023-03-05T04:19:16.949Z",
  "networkType": "ethereum",
  "devdoc": {
    "events": {
      "Approval(address,address,uint256)": {
        "details": "Emitted when `owner` enables `approved` to manage the `tokenId` token."
      },
      "ApprovalForAll(address,address,bool)": {
        "details": "Emitted when `owner` enables or disables (`approved`) `operator` to manage all of its assets."
      },
      "Paused(address)": {
        "details": "Emitted when the pause is triggered by `account`."
      },
      "Transfer(address,address,uint256)": {
        "details": "Emitted when `tokenId` token is transferred from `from` to `to`."
      },
      "Unpaused(address)": {
        "details": "Emitted when the pause is lifted by `account`."
      },
      "UriChanged()": {
        "details": "Emitted when the base URI is changed."
      }
    },
    "kind": "dev",
    "methods": {
      "approve(address,uint256)": {
        "details": "See {IERC721-approve}."
      },
      "balanceOf(address)": {
        "details": "See {IERC721-balanceOf}."
      },
      "baseURI()": {
        "details": "Method for getting base URI for tokens"
      },
      "burn(uint256)": {
        "details": "Burns `tokenId`. See {ERC721-_burn}. Requirements: - The caller must own `tokenId` or be an approved operator."
      },
      "constructor": {
        "custom:oz-upgrades-unsafe-allow": "constructor"
      },
      "getApproved(uint256)": {
        "details": "See {IERC721-getApproved}."
      },
      "isApprovedForAll(address,address)": {
        "details": "See {IERC721-isApprovedForAll}."
      },
      "isSaleActive()": {
        "details": "This method should be invoked from WEB3 for getting current sale active status"
      },
      "maxSupply()": {
        "details": "Method for getting max supply count"
      },
      "name()": {
        "details": "See {IERC721Metadata-name}."
      },
      "owner()": {
        "details": "Returns the address of the current owner."
      },
      "ownerOf(uint256)": {
        "details": "See {IERC721-ownerOf}."
      },
      "pause()": {
        "details": "This method should be invoked from WEB3 from owner's account to PAUSE the smart contract"
      },
      "paused()": {
        "details": "Returns true if the contract is paused, and false otherwise."
      },
      "pricePerToken()": {
        "details": "Method for getting price required for minting per NFT token"
      },
      "renounceOwnership()": {
        "details": "Leaves the contract without owner. It will not be possible to call `onlyOwner` functions anymore. Can only be called by the current owner. NOTE: Renouncing ownership will leave the contract without an owner, thereby removing any functionality that is only available to the owner."
      },
      "safeMint()": {
        "details": "This method should be invoked from WEB3 for minting a new NFT"
      },
      "safeTransferFrom(address,address,uint256)": {
        "details": "See {IERC721-safeTransferFrom}."
      },
      "safeTransferFrom(address,address,uint256,bytes)": {
        "details": "See {IERC721-safeTransferFrom}."
      },
      "setApprovalForAll(address,bool)": {
        "details": "See {IERC721-setApprovalForAll}."
      },
      "setBaseURI(string)": {
        "details": "This method should be invoked from WEB3 for setting base token URI",
        "params": {
          "newBaseTokenURI": "New base token URI."
        }
      },
      "setSaleActive(bool)": {
        "details": "This method should be invoked from WEB3 for setting sale active status",
        "params": {
          "isActive": "Sale status param."
        }
      },
      "symbol()": {
        "details": "See {IERC721Metadata-symbol}."
      },
      "tokenByIndex(uint256)": {
        "details": "See {IERC721Enumerable-tokenByIndex}."
      },
      "tokenOfOwnerByIndex(address,uint256)": {
        "details": "See {IERC721Enumerable-tokenOfOwnerByIndex}."
      },
      "tokensOfOwner(address)": {
        "details": "This method MUST NEVER be called by smart contract code. First, it's fairly  expensive (it walks the entire Kitty array looking for cats belonging to owner),  but it also returns a dynamic array, which is only supported for web3 calls, and  not contract-to-contract calls.",
        "params": {
          "_owner": "The owner whose NFTs we are interested in."
        }
      },
      "totalSupply()": {
        "details": "See {IERC721Enumerable-totalSupply}."
      },
      "transferFrom(address,address,uint256)": {
        "details": "See {IERC721-transferFrom}."
      },
      "transferOwnership(address)": {
        "details": "Transfers ownership of the contract to a new account (`newOwner`). Can only be called by the current owner."
      },
      "unpause()": {
        "details": "This method should be invoked from WEB3 from owner's account to UNPAUSE the smart contract"
      },
      "withdraw()": {
        "details": "This is a V2 method which allows owner to withdraw ethers"
      }
    },
    "version": 1
  },
  "userdoc": {
    "kind": "user",
    "methods": {
      "tokensOfOwner(address)": {
        "notice": "Returns a list of all NFT IDs assigned to an address."
      }
    },
    "version": 1
  }
}