{
  "contractName": "MyNFTV2",
  "abi": [
    {
      "inputs": [],
      "stateMutability": "nonpayable",
      "type": "constructor"
    },
    {
      "anonymous": false,
      "inputs": [
        {
          "indexed": true,
          "internalType": "address",
          "name": "owner",
          "type": "address"
        },
        {
          "indexed": true,
          "internalType": "address",
          "name": "approved",
          "type": "address"
        },
        {
          "indexed": true,
          "internalType": "uint256",
          "name": "tokenId",
          "type": "uint256"
        }
      ],
      "name": "Approval",
      "type": "event"
    },
    {
      "anonymous": false,
      "inputs": [
        {
          "indexed": true,
          "internalType": "address",
          "name": "owner",
          "type": "address"
        },
        {
          "indexed": true,
          "internalType": "address",
          "name": "operator",
          "type": "address"
        },
        {
          "indexed": false,
          "internalType": "bool",
          "name": "approved",
          "type": "bool"
        }
      ],
      "name": "ApprovalForAll",
      "type": "event"
    },
    {
      "anonymous": false,
      "inputs": [
        {
          "indexed": true,
          "internalType": "address",
          "name": "previousOwner",
          "type": "address"
        },
        {
          "indexed": true,
          "internalType": "address",
          "name": "newOwner",
          "type": "address"
        }
      ],
      "name": "OwnershipTransferred",
      "type": "event"
    },
    {
      "anonymous": false,
      "inputs": [
        {
          "indexed": false,
          "internalType": "address",
          "name": "account",
          "type": "address"
        }
      ],
      "name": "Paused",
      "type": "event"
    },
    {
      "anonymous": false,
      "inputs": [
        {
          "indexed": true,
          "internalType": "address",
          "name": "from",
          "type": "address"
        },
        {
          "indexed": true,
          "internalType": "address",
          "name": "to",
          "type": "address"
        },
        {
          "indexed": true,
          "internalType": "uint256",
          "name": "tokenId",
          "type": "uint256"
        }
      ],
      "name": "Transfer",
      "type": "event"
    },
    {
      "anonymous": false,
      "inputs": [
        {
          "indexed": false,
          "internalType": "address",
          "name": "account",
          "type": "address"
        }
      ],
      "name": "Unpaused",
      "type": "event"
    },
    {
      "anonymous": false,
      "inputs": [],
      "name": "UriChanged",
      "type": "event"
    },
    {
      "inputs": [
        {
          "internalType": "address",
          "name": "to",
          "type": "address"
        },
        {
          "internalType": "uint256",
          "name": "tokenId",
          "type": "uint256"
        }
      ],
      "name": "approve",
      "outputs": [],
      "stateMutability": "nonpayable",
      "type": "function"
    },
    {
      "inputs": [
        {
          "internalType": "address",
          "name": "owner",
          "type": "address"
        }
      ],
      "name": "balanceOf",
      "outputs": [
        {
          "internalType": "uint256",
          "name": "",
          "type": "uint256"
        }
      ],
      "stateMutability": "view",
      "type": "function",
      "constant": true
    },
    {
      "inputs": [
        {
          "internalType": "uint256",
          "name": "tokenId",
          "type": "uint256"
        }
      ],
      "name": "burn",
      "outputs": [],
      "stateMutability": "nonpayable",
      "type": "function"
    },
    {
      "inputs": [
        {
          "internalType": "uint256",
          "name": "tokenId",
          "type": "uint256"
        }
      ],
      "name": "getApproved",
      "outputs": [
        {
          "internalType": "address",
          "name": "",
          "type": "address"
        }
      ],
      "stateMutability": "view",
      "type": "function",
      "constant": true
    },
    {
      "inputs": [
        {
          "internalType": "address",
          "name": "owner",
          "type": "address"
        },
        {
          "internalType": "address",
          "name": "operator",
          "type": "address"
        }
      ],
      "name": "isApprovedForAll",
      "outputs": [
        {
          "internalType": "bool",
          "name": "",
          "type": "bool"
        }
      ],
      "stateMutability": "view",
      "type": "function",
      "constant": true
    },
    {
      "inputs": [],
      "name": "name",
      "outputs": [
        {
          "internalType": "string",
          "name": "",
          "type": "string"
        }
      ],
      "stateMutability": "view",
      "type": "function",
      "constant": true
    },
    {
      "inputs": [],
      "name": "owner",
      "outputs": [
        {
          "internalType": "address",
          "name": "",
          "type": "address"
        }
      ],
      "stateMutability": "view",
      "type": "function",
      "constant": true
    },
    {
      "inputs": [
        {
          "internalType": "uint256",
          "name": "tokenId",
          "type": "uint256"
        }
      ],
      "name": "ownerOf",
      "outputs": [
        {
          "internalType": "address",
          "name": "",
          "type": "address"
        }
      ],
      "stateMutability": "view",
      "type": "function",
      "constant": true
    },
    {
      "inputs": [],
      "name": "paused",
      "outputs": [
        {
          "internalType": "bool",
          "name": "",
          "type": "bool"
        }
      ],
      "stateMutability": "view",
      "type": "function",
      "constant": true
    },
    {
      "inputs": [],
      "name": "renounceOwnership",
      "outputs": [],
      "stateMutability": "nonpayable",
      "type": "function"
    },
    {
      "inputs": [
        {
          "internalType": "address",
          "name": "from",
          "type": "address"
        },
        {
          "internalType": "address",
          "name": "to",
          "type": "address"
        },
        {
          "internalType": "uint256",
          "name": "tokenId",
          "type": "uint256"
        }
      ],
      "name": "safeTransferFrom",
      "outputs": [],
      "stateMutability": "nonpayable",
      "type": "function"
    },
    {
      "inputs": [
        {
          "internalType": "address",
          "name": "from",
          "type": "address"
        },
        {
          "internalType": "address",
          "name": "to",
          "type": "address"
        },
        {
          "internalType": "uint256",
          "name": "tokenId",
          "type": "uint256"
        },
        {
          "internalType": "bytes",
          "name": "_data",
          "type": "bytes"
        }
      ],
      "name": "safeTransferFrom",
      "outputs": [],
      "stateMutability": "nonpayable",
      "type": "function"
    },
    {
      "inputs": [
        {
          "internalType": "address",
          "name": "operator",
          "type": "address"
        },
        {
          "internalType": "bool",
          "name": "approved",
          "type": "bool"
        }
      ],
      "name": "setApprovalForAll",
      "outputs": [],
      "stateMutability": "nonpayable",
      "type": "function"
    },
    {
      "inputs": [],
      "name": "symbol",
      "outputs": [
        {
          "internalType": "string",
          "name": "",
          "type": "string"
        }
      ],
      "stateMutability": "view",
      "type": "function",
      "constant": true
    },
    {
      "inputs": [
        {
          "internalType": "uint256",
          "name": "index",
          "type": "uint256"
        }
      ],
      "name": "tokenByIndex",
      "outputs": [
        {
          "internalType": "uint256",
          "name": "",
          "type": "uint256"
        }
      ],
      "stateMutability": "view",
      "type": "function",
      "constant": true
    },
    {
      "inputs": [
        {
          "internalType": "address",
          "name": "owner",
          "type": "address"
        },
        {
          "internalType": "uint256",
          "name": "index",
          "type": "uint256"
        }
      ],
      "name": "tokenOfOwnerByIndex",
      "outputs": [
        {
          "internalType": "uint256",
          "name": "",
          "type": "uint256"
        }
      ],
      "stateMutability": "view",
      "type": "function",
      "constant": true
    },
    {
      "inputs": [],
      "name": "totalSupply",
      "outputs": [
        {
          "internalType": "uint256",
          "name": "",
          "type": "uint256"
        }
      ],
      "stateMutability": "view",
      "type": "function",
      "constant": true
    },
    {
      "inputs": [
        {
          "internalType": "address",
          "name": "from",
          "type": "address"
        },
        {
          "internalType": "address",
          "name": "to",
          "type": "address"
        },
        {
          "internalType": "uint256",
          "name": "tokenId",
          "type": "uint256"
        }
      ],
      "name": "transferFrom",
      "outputs": [],
      "stateMutability": "nonpayable",
      "type": "function"
    },
    {
      "inputs": [
        {
          "internalType": "address",
          "name": "newOwner",
          "type": "address"
        }
      ],
      "name": "transferOwnership",
      "outputs": [],
      "stateMutability": "nonpayable",
      "type": "function"
    },
    {
      "inputs": [
        {
          "internalType": "string",
          "name": "name",
          "type": "string"
        },
        {
          "internalType": "string",
          "name": "symbol",
          "type": "string"
        },
        {
          "internalType": "string",
          "name": "baseTokenURI",
          "type": "string"
        },
        {
          "internalType": "uint256",
          "name": "maxTokenSupply",
          "type": "uint256"
        },
        {
          "internalType": "uint256",
          "name": "tokenPrice",
          "type": "uint256"
        }
      ],
      "name": "initialize",
      "outputs": [],
      "stateMutability": "nonpayable",
      "type": "function"
    },
    {
      "inputs": [],
      "name": "safeMint",
      "outputs": [],
      "stateMutability": "payable",
      "type": "function",
      "payable": true
    },
    {
      "inputs": [
        {
          "internalType": "address",
          "name": "_owner",
          "type": "address"
        }
      ],
      "name": "tokensOfOwner",
      "outputs": [
        {
          "internalType": "uint256[]",
          "name": "ownerTokens",
          "type": "uint256[]"
        }
      ],
      "stateMutability": "view",
      "type": "function",
      "constant": true
    },
    {
      "inputs": [],
      "name": "withdraw",
      "outputs": [],
      "stateMutability": "nonpayable",
      "type": "function"
    },
    {
      "inputs": [
        {
          "internalType": "bool",
          "name": "isActive",
          "type": "bool"
        }
      ],
      "name": "setSaleActive",
      "outputs": [],
      "stateMutability": "nonpayable",
      "type": "function"
    },
    {
      "inputs": [
        {
          "internalType": "string",
          "name": "newBaseTokenURI",
          "type": "string"
        }
      ],
      "name": "setBaseURI",
      "outputs": [],
      "stateMutability": "nonpayable",
      "type": "function"
    },
    {
      "inputs": [],
      "name": "pause",
      "outputs": [],
      "stateMutability": "nonpayable",
      "type": "function"
    },
    {
      "inputs": [],
      "name": "unpause",
      "outputs": [],
      "stateMutability": "nonpayable",
      "type": "function"
    },
    {
      "inputs": [
        {
          "internalType": "uint256",
          "name": "tokenId",
          "type": "uint256"
        }
      ],
      "name": "tokenURI",
      "outputs": [
        {
          "internalType": "string",
          "name": "",
          "type": "string"
        }
      ],
      "stateMutability": "view",
      "type": "function",
      "constant": true
    },
    {
      "inputs": [
        {
          "internalType": "bytes4",
          "name": "interfaceId",
          "type": "bytes4"
        }
      ],
      "name": "supportsInterface",
      "outputs": [
        {
          "internalType": "bool",
          "name": "",
          "type": "bool"
        }
      ],
      "stateMutability": "view",
      "type": "function",
      "constant": true
    },
    {
      "inputs": [],
      "name": "isSaleActive",
      "outputs": [
        {
          "internalType": "bool",
          "name": "",
          "type": "bool"
        }
      ],
      "stateMutability": "view",
      "type": "function",
      "constant": true
    },
    {
      "inputs": [],
      "name": "pricePerToken",
      "outputs": [
        {
          "internalType": "uint256",
          "name": "",
          "type": "uint256"
        }
      ],
      "stateMutability": "view",
      "type": "function",
      "constant": true
    },
    {
      "inputs": [],
      "name": "maxSupply",
      "outputs": [
        {
          "internalType": "uint256",
          "name": "",
          "type": "uint256"
        }
      ],
      "stateMutability": "view",
      "type": "function",
      "constant": true
    },
    {
      "inputs": [],
      "name": "baseURI",
      "outputs": [
        {
          "internalType": "string",
          "name": "",
          "type": "string"
        }
      ],
      "stateMutability": "view",
      "type": "function",
      "constant": true
    }
  ],
  "bytecode": "0x60806040523480156200001157600080fd5b50600054610100900460ff166200002f5760005460ff161562000033565b303b155b6200009b5760405162461bcd60e51b815260206004820152602e60248201527f496e697469616c697a61626c653a20636f6e747261637420697320616c72656160448201526d191e481a5b9a5d1a585b1a5e995960921b606482015260840160405180910390fd5b600054610100900460ff16158015620000be576000805461ffff19166101011790555b8015620000d1576000805461ff00191690555b5061301c80620000e26000396000f3fe6080604052600436106101fe5760003560e01c80636871ee401161011d5780638462151c116100b0578063b88d4fde1161007f578063d5abeb0111610064578063d5abeb011461058c578063e985e9c5146105a2578063f2fde38b146105eb57600080fd5b8063b88d4fde1461054c578063c87b56dd1461056c57600080fd5b80638462151c146104cb5780638da5cb5b146104f857806395d89b4114610517578063a22cb4651461052c57600080fd5b80637b1b1de6116100ec5780637b1b1de61461046057806380ddd09f14610476578063841718a6146104965780638456cb59146104b657600080fd5b80636871ee401461040e5780636c0360eb1461041657806370a082311461042b578063715018a61461044b57600080fd5b80633f4ba83a1161019557806355f804b31161016457806355f804b31461039d578063564566a8146103bd5780635c975abb146103d65780636352211e146103ee57600080fd5b80633f4ba83a1461032857806342842e0e1461033d57806342966c681461035d5780634f6ccce71461037d57600080fd5b806318160ddd116101d157806318160ddd146102b457806323b872dd146102d35780632f745c59146102f35780633ccfd60b1461031357600080fd5b806301ffc9a71461020357806306fdde0314610238578063081812fc1461025a578063095ea7b314610292575b600080fd5b34801561020f57600080fd5b5061022361021e36600461296c565b61060b565b60405190151581526020015b60405180910390f35b34801561024457600080fd5b5061024d61061c565b60405161022f91906129d9565b34801561026657600080fd5b5061027a6102753660046129ec565b6106ae565b6040516001600160a01b03909116815260200161022f565b34801561029e57600080fd5b506102b26102ad366004612a21565b610748565b005b3480156102c057600080fd5b506099545b60405190815260200161022f565b3480156102df57600080fd5b506102b26102ee366004612a4b565b610879565b3480156102ff57600080fd5b506102c561030e366004612a21565b610901565b34801561031f57600080fd5b506102b26109a9565b34801561033457600080fd5b506102b2610a54565b34801561034957600080fd5b506102b2610358366004612a4b565b610ab9565b34801561036957600080fd5b506102b26103783660046129ec565b610ad4565b34801561038957600080fd5b506102c56103983660046129ec565b610b5b565b3480156103a957600080fd5b506102b26103b8366004612b33565b610bff565b3480156103c957600080fd5b506101925460ff16610223565b3480156103e257600080fd5b5060fb5460ff16610223565b3480156103fa57600080fd5b5061027a6104093660046129ec565b610c94565b6102b2610d1f565b34801561042257600080fd5b5061024d610e70565b34801561043757600080fd5b506102c5610446366004612b68565b610e80565b34801561045757600080fd5b506102b2610f1a565b34801561046c57600080fd5b50610193546102c5565b34801561048257600080fd5b506102b2610491366004612b83565b610f7f565b3480156104a257600080fd5b506102b26104b1366004612c2d565b6110a6565b3480156104c257600080fd5b506102b2611115565b3480156104d757600080fd5b506104eb6104e6366004612b68565b611178565b60405161022f9190612c48565b34801561050457600080fd5b5061012d546001600160a01b031661027a565b34801561052357600080fd5b5061024d61124f565b34801561053857600080fd5b506102b2610547366004612c8c565b61125e565b34801561055857600080fd5b506102b2610567366004612cbf565b611269565b34801561057857600080fd5b5061024d6105873660046129ec565b6112f7565b34801561059857600080fd5b50610194546102c5565b3480156105ae57600080fd5b506102236105bd366004612d3b565b6001600160a01b039182166000908152606a6020908152604080832093909416825291909152205460ff1690565b3480156105f757600080fd5b506102b2610606366004612b68565b611302565b6000610616826113e2565b92915050565b60606065805461062b90612d65565b80601f016020809104026020016040519081016040528092919081815260200182805461065790612d65565b80156106a45780601f10610679576101008083540402835291602001916106a4565b820191906000526020600020905b81548152906001019060200180831161068757829003601f168201915b5050505050905090565b6000818152606760205260408120546001600160a01b031661072c5760405162461bcd60e51b815260206004820152602c60248201527f4552433732313a20617070726f76656420717565727920666f72206e6f6e657860448201526b34b9ba32b73a103a37b5b2b760a11b60648201526084015b60405180910390fd5b506000908152606960205260409020546001600160a01b031690565b600061075382610c94565b9050806001600160a01b0316836001600160a01b0316036107dc5760405162461bcd60e51b815260206004820152602160248201527f4552433732313a20617070726f76616c20746f2063757272656e74206f776e6560448201527f72000000000000000000000000000000000000000000000000000000000000006064820152608401610723565b336001600160a01b03821614806107f857506107f881336105bd565b61086a5760405162461bcd60e51b815260206004820152603860248201527f4552433732313a20617070726f76652063616c6c6572206973206e6f74206f7760448201527f6e6572206e6f7220617070726f76656420666f7220616c6c00000000000000006064820152608401610723565b6108748383611420565b505050565b610884335b8261148e565b6108f65760405162461bcd60e51b815260206004820152603160248201527f4552433732313a207472616e736665722063616c6c6572206973206e6f74206f60448201527f776e6572206e6f7220617070726f7665640000000000000000000000000000006064820152608401610723565b610874838383611585565b600061090c83610e80565b82106109805760405162461bcd60e51b815260206004820152602b60248201527f455243373231456e756d657261626c653a206f776e657220696e646578206f7560448201527f74206f6620626f756e64730000000000000000000000000000000000000000006064820152608401610723565b506001600160a01b03919091166000908152609760209081526040808320938352929052205490565b61012d546001600160a01b03163314610a045760405162461bcd60e51b815260206004820181905260248201527f4f776e61626c653a2063616c6c6572206973206e6f7420746865206f776e65726044820152606401610723565b47610a1861012d546001600160a01b031690565b6001600160a01b03166108fc829081150290604051600060405180830381858888f19350505050158015610a50573d6000803e3d6000fd5b5050565b61012d546001600160a01b03163314610aaf5760405162461bcd60e51b815260206004820181905260248201527f4f776e61626c653a2063616c6c6572206973206e6f7420746865206f776e65726044820152606401610723565b610ab761175d565b565b61087483838360405180602001604052806000815250611269565b610add3361087e565b610b4f5760405162461bcd60e51b815260206004820152603060248201527f4552433732314275726e61626c653a2063616c6c6572206973206e6f74206f7760448201527f6e6572206e6f7220617070726f766564000000000000000000000000000000006064820152608401610723565b610b58816117f9565b50565b6000610b6660995490565b8210610bda5760405162461bcd60e51b815260206004820152602c60248201527f455243373231456e756d657261626c653a20676c6f62616c20696e646578206f60448201527f7574206f6620626f756e647300000000000000000000000000000000000000006064820152608401610723565b60998281548110610bed57610bed612d99565b90600052602060002001549050919050565b61012d546001600160a01b03163314610c5a5760405162461bcd60e51b815260206004820181905260248201527f4f776e61626c653a2063616c6c6572206973206e6f7420746865206f776e65726044820152606401610723565b610195610c678282612df5565b506040517fc20fc16a841df46e2f670ae554047dbc09e2955d620062501289021c445917a190600090a150565b6000818152606760205260408120546001600160a01b0316806106165760405162461bcd60e51b815260206004820152602960248201527f4552433732313a206f776e657220717565727920666f72206e6f6e657869737460448201527f656e7420746f6b656e00000000000000000000000000000000000000000000006064820152608401610723565b6000610d2b6101915490565b6101925490915060ff16610d815760405162461bcd60e51b815260206004820152601f60248201527f53616c65206d7573742062652061637469766520746f206d696e74204e4654006044820152606401610723565b61019454610d90826001611802565b1115610e045760405162461bcd60e51b815260206004820152602860248201527f507572636861736520776f756c6420657863656564206d617820737570706c7960448201527f206f66204e4654730000000000000000000000000000000000000000000000006064820152608401610723565b34610193541115610e575760405162461bcd60e51b815260206004820152601f60248201527f45746865722076616c75652073656e74206973206e6f7420636f7272656374006044820152606401610723565b610e6661019180546001019055565b610b583382611815565b6060610195805461062b90612d65565b60006001600160a01b038216610efe5760405162461bcd60e51b815260206004820152602a60248201527f4552433732313a2062616c616e636520717565727920666f7220746865207a6560448201527f726f2061646472657373000000000000000000000000000000000000000000006064820152608401610723565b506001600160a01b031660009081526068602052604090205490565b61012d546001600160a01b03163314610f755760405162461bcd60e51b815260206004820181905260248201527f4f776e61626c653a2063616c6c6572206973206e6f7420746865206f776e65726044820152606401610723565b610ab7600061182f565b600054610100900460ff16610f9a5760005460ff1615610f9e565b303b155b6110105760405162461bcd60e51b815260206004820152602e60248201527f496e697469616c697a61626c653a20636f6e747261637420697320616c72656160448201527f647920696e697469616c697a65640000000000000000000000000000000000006064820152608401610723565b600054610100900460ff16158015611032576000805461ffff19166101011790555b61103c8686611882565b611044611907565b61104c611907565b61105461198a565b61105c611a05565b611064611907565b610192805460ff1916600117905561019561107f8582612df5565b50610194839055610193829055801561109e576000805461ff00191690555b505050505050565b61012d546001600160a01b031633146111015760405162461bcd60e51b815260206004820181905260248201527f4f776e61626c653a2063616c6c6572206973206e6f7420746865206f776e65726044820152606401610723565b610192805460ff1916911515919091179055565b61012d546001600160a01b031633146111705760405162461bcd60e51b815260206004820181905260248201527f4f776e61626c653a2063616c6c6572206973206e6f7420746865206f776e65726044820152606401610723565b610ab7611a80565b6060600061118583610e80565b9050806000036111a5575050604080516000815260208101909152919050565b60008167ffffffffffffffff8111156111c0576111c0612a87565b6040519080825280602002602001820160405280156111e9578160200160208202803683370190505b5090506000805b8381101561123f576112028682610901565b83838151811061121457611214612d99565b60209081029190910101528161122981612ecb565b925050808061123790612ecb565b9150506111f0565b5090949350505050565b50919050565b60606066805461062b90612d65565b610a50338383611b08565b611273338361148e565b6112e55760405162461bcd60e51b815260206004820152603160248201527f4552433732313a207472616e736665722063616c6c6572206973206e6f74206f60448201527f776e6572206e6f7220617070726f7665640000000000000000000000000000006064820152608401610723565b6112f184848484611bd6565b50505050565b606061061682611c54565b61012d546001600160a01b0316331461135d5760405162461bcd60e51b815260206004820181905260248201527f4f776e61626c653a2063616c6c6572206973206e6f7420746865206f776e65726044820152606401610723565b6001600160a01b0381166113d95760405162461bcd60e51b815260206004820152602660248201527f4f776e61626c653a206e6577206f776e657220697320746865207a65726f206160448201527f64647265737300000000000000000000000000000000000000000000000000006064820152608401610723565b610b588161182f565b60006001600160e01b031982167f780e9d63000000000000000000000000000000000000000000000000000000001480610616575061061682611dd1565b600081815260696020526040902080546001600160a01b0319166001600160a01b038416908117909155819061145582610c94565b6001600160a01b03167f8c5be1e5ebec7d5bd14f71427d1e84f3dd0314c0f7b2291e5b200ac8c7c3b92560405160405180910390a45050565b6000818152606760205260408120546001600160a01b03166115075760405162461bcd60e51b815260206004820152602c60248201527f4552433732313a206f70657261746f7220717565727920666f72206e6f6e657860448201526b34b9ba32b73a103a37b5b2b760a11b6064820152608401610723565b600061151283610c94565b9050806001600160a01b0316846001600160a01b0316148061154d5750836001600160a01b0316611542846106ae565b6001600160a01b0316145b8061157d57506001600160a01b038082166000908152606a602090815260408083209388168352929052205460ff165b949350505050565b826001600160a01b031661159882610c94565b6001600160a01b0316146116145760405162461bcd60e51b815260206004820152602960248201527f4552433732313a207472616e73666572206f6620746f6b656e2074686174206960448201527f73206e6f74206f776e00000000000000000000000000000000000000000000006064820152608401610723565b6001600160a01b03821661168f5760405162461bcd60e51b8152602060048201526024808201527f4552433732313a207472616e7366657220746f20746865207a65726f2061646460448201527f72657373000000000000000000000000000000000000000000000000000000006064820152608401610723565b61169a838383611e6c565b6116a5600082611420565b6001600160a01b03831660009081526068602052604081208054600192906116ce908490612ee4565b90915550506001600160a01b03821660009081526068602052604081208054600192906116fc908490612ef7565b909155505060008181526067602052604080822080546001600160a01b0319166001600160a01b0386811691821790925591518493918716917fddf252ad1be2c89b69c2b068fc378daa952ba7f163c4a11628f55a4df523b3ef91a4505050565b60fb5460ff166117af5760405162461bcd60e51b815260206004820152601460248201527f5061757361626c653a206e6f74207061757365640000000000000000000000006044820152606401610723565b60fb805460ff191690557f5db9ee0a495bf2e6ff9c91a7834c1ba4fdd244a5e8aa4e537bd38aeae4b073aa335b6040516001600160a01b03909116815260200160405180910390a1565b610b5881611eca565b600061180e8284612ef7565b9392505050565b610a50828260405180602001604052806000815250611f0a565b61012d80546001600160a01b038381166001600160a01b0319831681179093556040519116919082907f8be0079c531659141344cd1fd0a4f28419497f9722a3daafe3b4186f6b6457e090600090a35050565b600054610100900460ff166118ed5760405162461bcd60e51b815260206004820152602b60248201527f496e697469616c697a61626c653a20636f6e7472616374206973206e6f74206960448201526a6e697469616c697a696e6760a81b6064820152608401610723565b6118f5611f88565b6118fd611f88565b610a508282611ff3565b600054610100900460ff166119725760405162461bcd60e51b815260206004820152602b60248201527f496e697469616c697a61626c653a20636f6e7472616374206973206e6f74206960448201526a6e697469616c697a696e6760a81b6064820152608401610723565b61197a611f88565b611982611f88565b610ab7611f88565b600054610100900460ff166119f55760405162461bcd60e51b815260206004820152602b60248201527f496e697469616c697a61626c653a20636f6e7472616374206973206e6f74206960448201526a6e697469616c697a696e6760a81b6064820152608401610723565b6119fd611f88565b610ab7612077565b600054610100900460ff16611a705760405162461bcd60e51b815260206004820152602b60248201527f496e697469616c697a61626c653a20636f6e7472616374206973206e6f74206960448201526a6e697469616c697a696e6760a81b6064820152608401610723565b611a78611f88565b610ab76120ee565b60fb5460ff1615611ad35760405162461bcd60e51b815260206004820152601060248201527f5061757361626c653a20706175736564000000000000000000000000000000006044820152606401610723565b60fb805460ff191660011790557f62e78cea01bee320cd4e420270b5ea74000d11b0c9f74754ebdbfc544b05a2586117dc3390565b816001600160a01b0316836001600160a01b031603611b695760405162461bcd60e51b815260206004820152601960248201527f4552433732313a20617070726f766520746f2063616c6c6572000000000000006044820152606401610723565b6001600160a01b038381166000818152606a6020908152604080832094871680845294825291829020805460ff191686151590811790915591519182527f17307eab39ab6107e8899845ad3d59bd9653f200f220920489ca2b5937696c31910160405180910390a3505050565b611be1848484611585565b611bed84848484612162565b6112f15760405162461bcd60e51b815260206004820152603260248201527f4552433732313a207472616e7366657220746f206e6f6e20455243373231526560448201527131b2b4bb32b91034b6b83632b6b2b73a32b960711b6064820152608401610723565b6000818152606760205260409020546060906001600160a01b0316611ce15760405162461bcd60e51b815260206004820152603160248201527f45524337323155524953746f726167653a2055524920717565727920666f722060448201527f6e6f6e6578697374656e7420746f6b656e0000000000000000000000000000006064820152608401610723565b600082815260c9602052604081208054611cfa90612d65565b80601f0160208091040260200160405190810160405280929190818152602001828054611d2690612d65565b8015611d735780601f10611d4857610100808354040283529160200191611d73565b820191906000526020600020905b815481529060010190602001808311611d5657829003601f168201915b505050505090506000611d84610e70565b90508051600003611d96575092915050565b815115611dc8578082604051602001611db0929190612f0a565b60405160208183030381529060405292505050919050565b61157d846122ae565b60006001600160e01b031982167f80ac58cd000000000000000000000000000000000000000000000000000000001480611e3457506001600160e01b031982167f5b5e139f00000000000000000000000000000000000000000000000000000000145b8061061657507f01ffc9a7000000000000000000000000000000000000000000000000000000006001600160e01b0319831614610616565b60fb5460ff1615611ebf5760405162461bcd60e51b815260206004820152601060248201527f5061757361626c653a20706175736564000000000000000000000000000000006044820152606401610723565b610874838383612396565b611ed38161244e565b600081815260c9602052604090208054611eec90612d65565b159050610b5857600081815260c960205260408120610b5891612908565b611f1483836124f5565b611f216000848484612162565b6108745760405162461bcd60e51b815260206004820152603260248201527f4552433732313a207472616e7366657220746f206e6f6e20455243373231526560448201527131b2b4bb32b91034b6b83632b6b2b73a32b960711b6064820152608401610723565b600054610100900460ff16610ab75760405162461bcd60e51b815260206004820152602b60248201527f496e697469616c697a61626c653a20636f6e7472616374206973206e6f74206960448201526a6e697469616c697a696e6760a81b6064820152608401610723565b600054610100900460ff1661205e5760405162461bcd60e51b815260206004820152602b60248201527f496e697469616c697a61626c653a20636f6e7472616374206973206e6f74206960448201526a6e697469616c697a696e6760a81b6064820152608401610723565b606561206a8382612df5565b5060666108748282612df5565b600054610100900460ff166120e25760405162461bcd60e51b815260206004820152602b60248201527f496e697469616c697a61626c653a20636f6e7472616374206973206e6f74206960448201526a6e697469616c697a696e6760a81b6064820152608401610723565b60fb805460ff19169055565b600054610100900460ff166121595760405162461bcd60e51b815260206004820152602b60248201527f496e697469616c697a61626c653a20636f6e7472616374206973206e6f74206960448201526a6e697469616c697a696e6760a81b6064820152608401610723565b610ab73361182f565b60006001600160a01b0384163b156122a357604051630a85bd0160e11b81526001600160a01b0385169063150b7a02906121a6903390899088908890600401612f39565b6020604051808303816000875af19250505080156121e1575060408051601f3d908101601f191682019092526121de91810190612f75565b60015b612289573d80801561220f576040519150601f19603f3d011682016040523d82523d6000602084013e612214565b606091505b5080516000036122815760405162461bcd60e51b815260206004820152603260248201527f4552433732313a207472616e7366657220746f206e6f6e20455243373231526560448201527131b2b4bb32b91034b6b83632b6b2b73a32b960711b6064820152608401610723565b805181602001fd5b6001600160e01b031916630a85bd0160e11b14905061157d565b506001949350505050565b6000818152606760205260409020546060906001600160a01b031661233b5760405162461bcd60e51b815260206004820152602f60248201527f4552433732314d657461646174613a2055524920717565727920666f72206e6f60448201527f6e6578697374656e7420746f6b656e00000000000000000000000000000000006064820152608401610723565b6000612345610e70565b90506000815111612365576040518060200160405280600081525061180e565b8061236f84612643565b604051602001612380929190612f0a565b6040516020818303038152906040529392505050565b6001600160a01b0383166123f1576123ec81609980546000838152609a60205260408120829055600182018355919091527f72a152ddfb8e864297c917af52ea6c1c68aead0fee1a62673fcc7e0c94979d000155565b612414565b816001600160a01b0316836001600160a01b031614612414576124148382612778565b6001600160a01b03821661242b5761087481612815565b826001600160a01b0316826001600160a01b0316146108745761087482826128c4565b600061245982610c94565b905061246781600084611e6c565b612472600083611420565b6001600160a01b038116600090815260686020526040812080546001929061249b908490612ee4565b909155505060008281526067602052604080822080546001600160a01b0319169055518391906001600160a01b038416907fddf252ad1be2c89b69c2b068fc378daa952ba7f163c4a11628f55a4df523b3ef908390a45050565b6001600160a01b03821661254b5760405162461bcd60e51b815260206004820181905260248201527f4552433732313a206d696e7420746f20746865207a65726f20616464726573736044820152606401610723565b6000818152606760205260409020546001600160a01b0316156125b05760405162461bcd60e51b815260206004820152601c60248201527f4552433732313a20746f6b656e20616c7265616479206d696e746564000000006044820152606401610723565b6125bc60008383611e6c565b6001600160a01b03821660009081526068602052604081208054600192906125e5908490612ef7565b909155505060008181526067602052604080822080546001600160a01b0319166001600160a01b03861690811790915590518392907fddf252ad1be2c89b69c2b068fc378daa952ba7f163c4a11628f55a4df523b3ef908290a45050565b60608160000361268657505060408051808201909152600181527f3000000000000000000000000000000000000000000000000000000000000000602082015290565b8160005b81156126b0578061269a81612ecb565b91506126a99050600a83612fa8565b915061268a565b60008167ffffffffffffffff8111156126cb576126cb612a87565b6040519080825280601f01601f1916602001820160405280156126f5576020820181803683370190505b5090505b841561157d5761270a600183612ee4565b9150612717600a86612fbc565b612722906030612ef7565b60f81b81838151811061273757612737612d99565b60200101907effffffffffffffffffffffffffffffffffffffffffffffffffffffffffffff1916908160001a905350612771600a86612fa8565b94506126f9565b6000600161278584610e80565b61278f9190612ee4565b6000838152609860205260409020549091508082146127e2576001600160a01b03841660009081526097602090815260408083208584528252808320548484528184208190558352609890915290208190555b5060009182526098602090815260408084208490556001600160a01b039094168352609781528383209183525290812055565b60995460009061282790600190612ee4565b6000838152609a60205260408120546099805493945090928490811061284f5761284f612d99565b90600052602060002001549050806099838154811061287057612870612d99565b6000918252602080832090910192909255828152609a909152604080822084905585825281205560998054806128a8576128a8612fd0565b6001900381819060005260206000200160009055905550505050565b60006128cf83610e80565b6001600160a01b039093166000908152609760209081526040808320868452825280832085905593825260989052919091209190915550565b50805461291490612d65565b6000825580601f10612924575050565b601f016020900490600052602060002090810190610b5891905b80821115612952576000815560010161293e565b5090565b6001600160e01b031981168114610b5857600080fd5b60006020828403121561297e57600080fd5b813561180e81612956565b60005b838110156129a457818101518382015260200161298c565b50506000910152565b600081518084526129c5816020860160208601612989565b601f01601f19169290920160200192915050565b60208152600061180e60208301846129ad565b6000602082840312156129fe57600080fd5b5035919050565b80356001600160a01b0381168114612a1c57600080fd5b919050565b60008060408385031215612a3457600080fd5b612a3d83612a05565b946020939093013593505050565b600080600060608486031215612a6057600080fd5b612a6984612a05565b9250612a7760208501612a05565b9150604084013590509250925092565b634e487b7160e01b600052604160045260246000fd5b600067ffffffffffffffff80841115612ab857612ab8612a87565b604051601f8501601f19908116603f01168101908282118183101715612ae057612ae0612a87565b81604052809350858152868686011115612af957600080fd5b858560208301376000602087830101525050509392505050565b600082601f830112612b2457600080fd5b61180e83833560208501612a9d565b600060208284031215612b4557600080fd5b813567ffffffffffffffff811115612b5c57600080fd5b61157d84828501612b13565b600060208284031215612b7a57600080fd5b61180e82612a05565b600080600080600060a08688031215612b9b57600080fd5b853567ffffffffffffffff80821115612bb357600080fd5b612bbf89838a01612b13565b96506020880135915080821115612bd557600080fd5b612be189838a01612b13565b95506040880135915080821115612bf757600080fd5b50612c0488828901612b13565b9598949750949560608101359550608001359392505050565b80358015158114612a1c57600080fd5b600060208284031215612c3f57600080fd5b61180e82612c1d565b6020808252825182820181905260009190848201906040850190845b81811015612c8057835183529284019291840191600101612c64565b50909695505050505050565b60008060408385031215612c9f57600080fd5b612ca883612a05565b9150612cb660208401612c1d565b90509250929050565b60008060008060808587031215612cd557600080fd5b612cde85612a05565b9350612cec60208601612a05565b925060408501359150606085013567ffffffffffffffff811115612d0f57600080fd5b8501601f81018713612d2057600080fd5b612d2f87823560208401612a9d565b91505092959194509250565b60008060408385031215612d4e57600080fd5b612d5783612a05565b9150612cb660208401612a05565b600181811c90821680612d7957607f821691505b60208210810361124957634e487b7160e01b600052602260045260246000fd5b634e487b7160e01b600052603260045260246000fd5b601f82111561087457600081815260208120601f850160051c81016020861015612dd65750805b601f850160051c820191505b8181101561109e57828155600101612de2565b815167ffffffffffffffff811115612e0f57612e0f612a87565b612e2381612e1d8454612d65565b84612daf565b602080601f831160018114612e585760008415612e405750858301515b600019600386901b1c1916600185901b17855561109e565b600085815260208120601f198616915b82811015612e8757888601518255948401946001909101908401612e68565b5085821015612ea55787850151600019600388901b60f8161c191681555b5050505050600190811b01905550565b634e487b7160e01b600052601160045260246000fd5b600060018201612edd57612edd612eb5565b5060010190565b8181038181111561061657610616612eb5565b8082018082111561061657610616612eb5565b60008351612f1c818460208801612989565b835190830190612f30818360208801612989565b01949350505050565b60006001600160a01b03808716835280861660208401525083604083015260806060830152612f6b60808301846129ad565b9695505050505050565b600060208284031215612f8757600080fd5b815161180e81612956565b634e487b7160e01b600052601260045260246000fd5b600082612fb757612fb7612f92565b500490565b600082612fcb57612fcb612f92565b500690565b634e487b7160e01b600052603160045260246000fdfea26469706673582212201ce109f8a51d620cd56fd35eaa0f1e75bc62bdfeecc27a39684ae45c10992a6f64736f6c63430008130033",
  "immutableReferences": {},
  "source": "// SPDX-License-Identifier: MIT\npragma solidity ^0.8.2;\n\nimport \"@openzeppelin/contracts-upgradeable/token/ERC721/ERC721Upgradeable.sol\";\nimport \"@openzeppelin/contracts-upgradeable/token/ERC721/extensions/ERC721EnumerableUpgradeable.sol\";\nimport \"@openzeppelin/contracts-upgradeable/token/ERC721/extensions/ERC721URIStorageUpgradeable.sol\";\nimport \"@openzeppelin/contracts-upgradeable/security/PausableUpgradeable.sol\";\nimport \"@openzeppelin/contracts-upgradeable/access/OwnableUpgradeable.sol\";\nimport \"@openzeppelin/contracts-upgradeable/token/ERC721/extensions/ERC721BurnableUpgradeable.sol\";\nimport \"@openzeppelin/contracts-upgradeable/proxy/utils/Initializable.sol\";\nimport \"@openzeppelin/contracts-upgradeable/utils/CountersUpgradeable.sol\";\nimport \"@openzeppelin/contracts-upgradeable/utils/math/SafeMathUpgradeable.sol\";\n\ncontract MyNFTV2 is Initializable, ERC721Upgradeable, ERC721EnumerableUpgradeable, ERC721URIStorageUpgradeable, PausableUpgradeable, OwnableUpgradeable, ERC721BurnableUpgradeable {\n    using CountersUpgradeable for CountersUpgradeable.Counter;\n    using SafeMathUpgradeable for uint256;\n\n    CountersUpgradeable.Counter private _tokenIdCounter;\n    \n    // Contract private variables\n    bool private _isSaleActive;\n    uint256 private _pricePerToken;\n    uint256 private _maxSupply;\n    string private _baseTokenURI;\n\n    /**\n     * @dev Emitted when the base URI is changed.\n     */\n    event UriChanged();\n\n    /// @custom:oz-upgrades-unsafe-allow constructor\n    constructor() initializer {}\n\n    function initialize(string memory name, string memory symbol, string memory baseTokenURI, uint256 maxTokenSupply, uint256 tokenPrice) initializer public {\n        __ERC721_init(name, symbol);\n        __ERC721Enumerable_init();\n        __ERC721URIStorage_init();\n        __Pausable_init();\n        __Ownable_init();\n        __ERC721Burnable_init();\n\n        _isSaleActive = true;\n        _baseTokenURI = baseTokenURI;\n        _maxSupply = maxTokenSupply;\n        _pricePerToken = tokenPrice;\n    }\n\n\n    /// @dev This method should be invoked from WEB3 for minting a new NFT\n    function safeMint() public payable {\n        uint256 tokenId = _tokenIdCounter.current();\n\n        require(_isSaleActive, \"Sale must be active to mint NFT\");\n        require(tokenId.add(1) <= _maxSupply, \"Purchase would exceed max supply of NFTs\");\n        require(_pricePerToken <= msg.value, \"Ether value sent is not correct\");\n\n        _tokenIdCounter.increment();\n        _safeMint(msg.sender, tokenId);\n    }\n\n    /// @notice Returns a list of all NFT IDs assigned to an address.\n    /// @param _owner The owner whose NFTs we are interested in.\n    /// @dev This method MUST NEVER be called by smart contract code. First, it's fairly\n    ///  expensive (it walks the entire Kitty array looking for cats belonging to owner),\n    ///  but it also returns a dynamic array, which is only supported for web3 calls, and\n    ///  not contract-to-contract calls.\n    function tokensOfOwner(address _owner) public view returns(uint256[] memory ownerTokens) {\n        uint256 tokenCount = balanceOf(_owner);\n\n        if (tokenCount == 0) {\n            // Return an empty array\n            return new uint256[](0);\n        } else {\n            uint256[] memory result = new uint256[](tokenCount);\n            uint256 resultIndex = 0;\n\n            // We count on the fact that all cats have IDs starting at 1 and increasing\n            // sequentially up to the totalCat count.\n            uint256 index;\n            for (index = 0; index < tokenCount; index++) {\n                result[resultIndex] = tokenOfOwnerByIndex(_owner ,index);\n                resultIndex++;\n            }\n            return result;\n        }\n    }\n\n    /// @dev This is a V2 method which allows owner to withdraw ethers\n    function withdraw() public onlyOwner {\n        uint balance = address(this).balance;\n        payable(owner()).transfer(balance);\n    }\n\n    /// @param isActive Sale status param.\n    /// @dev This method should be invoked from WEB3 for setting sale active status\n    function setSaleActive(bool isActive) public onlyOwner {\n        _isSaleActive = isActive;\n    }\n\n    /// @param newBaseTokenURI New base token URI.\n    /// @dev This method should be invoked from WEB3 for setting base token URI\n    function setBaseURI(string memory newBaseTokenURI) public onlyOwner {\n        _baseTokenURI = newBaseTokenURI;\n        emit UriChanged();\n    }\n\n    function _beforeTokenTransfer(address from, address to, uint256 tokenId)\n        internal\n        whenNotPaused\n        override(ERC721Upgradeable, ERC721EnumerableUpgradeable)\n    {\n        super._beforeTokenTransfer(from, to, tokenId);\n    }\n\n    /// @dev This method should be invoked from WEB3 from owner's account to PAUSE the smart contract\n    function pause() public onlyOwner {\n        _pause();\n    }\n\n    /// @dev This method should be invoked from WEB3 from owner's account to UNPAUSE the smart contract\n    function unpause() public onlyOwner {\n        _unpause();\n    }\n\n    // The following functions are overrides required by Solidity.\n\n    function _burn(uint256 tokenId)\n        internal\n        override(ERC721Upgradeable, ERC721URIStorageUpgradeable)\n    {\n        super._burn(tokenId);\n    }\n\n    function tokenURI(uint256 tokenId)\n        public\n        view\n        override(ERC721Upgradeable, ERC721URIStorageUpgradeable)\n        returns (string memory)\n    {\n        return super.tokenURI(tokenId);\n    }\n\n    function supportsInterface(bytes4 interfaceId)\n        public\n        view\n        override(ERC721Upgradeable, ERC721EnumerableUpgradeable)\n        returns (bool)\n    {\n        return super.supportsInterface(interfaceId);\n    }\n\n    function _baseURI() internal view virtual override returns (string memory) {\n        return _baseTokenURI;\n    }\n\n    /// @dev This method should be invoked from WEB3 for getting current sale active status\n    function isSaleActive() public view returns (bool) {\n        return _isSaleActive;\n    }\n\n    /// @dev Method for getting price required for minting per NFT token\n    function pricePerToken() public view returns (uint256) {\n        return _pricePerToken;\n    }\n\n    /// @dev Method for getting max supply count\n    function maxSupply() public view returns (uint256) {\n        return _maxSupply;\n    }\n\n    /// @dev Method for getting base URI for tokens\n    function baseURI() public view returns (string memory) {\n        return _baseTokenURI;\n    }\n}\n",
  "sourcePath": "/Users/inflaton/code/emtech/nft-commerce/eth-upgradable-nft/contracts/MyNFTV2.sol",
  "compiler": {
    "name": "solc",
    "version": "0.8.19+commit.7dd6d404.Emscripten.clang"
  },
  "schemaVersion": "3.4.13",
  "updatedAt": "2023-03-05T03:00:40.308Z",
  "networkType": "ethereum",
  "devdoc": {
    "events": {
      "Approval(address,address,uint256)": {
        "details": "Emitted when `owner` enables `approved` to manage the `tokenId` token."
      },
      "ApprovalForAll(address,address,bool)": {
        "details": "Emitted when `owner` enables or disables (`approved`) `operator` to manage all of its assets."
      },
      "Paused(address)": {
        "details": "Emitted when the pause is triggered by `account`."
      },
      "Transfer(address,address,uint256)": {
        "details": "Emitted when `tokenId` token is transferred from `from` to `to`."
      },
      "Unpaused(address)": {
        "details": "Emitted when the pause is lifted by `account`."
      },
      "UriChanged()": {
        "details": "Emitted when the base URI is changed."
      }
    },
    "kind": "dev",
    "methods": {
      "approve(address,uint256)": {
        "details": "See {IERC721-approve}."
      },
      "balanceOf(address)": {
        "details": "See {IERC721-balanceOf}."
      },
      "baseURI()": {
        "details": "Method for getting base URI for tokens"
      },
      "burn(uint256)": {
        "details": "Burns `tokenId`. See {ERC721-_burn}. Requirements: - The caller must own `tokenId` or be an approved operator."
      },
      "constructor": {
        "custom:oz-upgrades-unsafe-allow": "constructor"
      },
      "getApproved(uint256)": {
        "details": "See {IERC721-getApproved}."
      },
      "isApprovedForAll(address,address)": {
        "details": "See {IERC721-isApprovedForAll}."
      },
      "isSaleActive()": {
        "details": "This method should be invoked from WEB3 for getting current sale active status"
      },
      "maxSupply()": {
        "details": "Method for getting max supply count"
      },
      "name()": {
        "details": "See {IERC721Metadata-name}."
      },
      "owner()": {
        "details": "Returns the address of the current owner."
      },
      "ownerOf(uint256)": {
        "details": "See {IERC721-ownerOf}."
      },
      "pause()": {
        "details": "This method should be invoked from WEB3 from owner's account to PAUSE the smart contract"
      },
      "paused()": {
        "details": "Returns true if the contract is paused, and false otherwise."
      },
      "pricePerToken()": {
        "details": "Method for getting price required for minting per NFT token"
      },
      "renounceOwnership()": {
        "details": "Leaves the contract without owner. It will not be possible to call `onlyOwner` functions anymore. Can only be called by the current owner. NOTE: Renouncing ownership will leave the contract without an owner, thereby removing any functionality that is only available to the owner."
      },
      "safeMint()": {
        "details": "This method should be invoked from WEB3 for minting a new NFT"
      },
      "safeTransferFrom(address,address,uint256)": {
        "details": "See {IERC721-safeTransferFrom}."
      },
      "safeTransferFrom(address,address,uint256,bytes)": {
        "details": "See {IERC721-safeTransferFrom}."
      },
      "setApprovalForAll(address,bool)": {
        "details": "See {IERC721-setApprovalForAll}."
      },
      "setBaseURI(string)": {
        "details": "This method should be invoked from WEB3 for setting base token URI",
        "params": {
          "newBaseTokenURI": "New base token URI."
        }
      },
      "setSaleActive(bool)": {
        "details": "This method should be invoked from WEB3 for setting sale active status",
        "params": {
          "isActive": "Sale status param."
        }
      },
      "symbol()": {
        "details": "See {IERC721Metadata-symbol}."
      },
      "tokenByIndex(uint256)": {
        "details": "See {IERC721Enumerable-tokenByIndex}."
      },
      "tokenOfOwnerByIndex(address,uint256)": {
        "details": "See {IERC721Enumerable-tokenOfOwnerByIndex}."
      },
      "tokensOfOwner(address)": {
        "details": "This method MUST NEVER be called by smart contract code. First, it's fairly  expensive (it walks the entire Kitty array looking for cats belonging to owner),  but it also returns a dynamic array, which is only supported for web3 calls, and  not contract-to-contract calls.",
        "params": {
          "_owner": "The owner whose NFTs we are interested in."
        }
      },
      "totalSupply()": {
        "details": "See {IERC721Enumerable-totalSupply}."
      },
      "transferFrom(address,address,uint256)": {
        "details": "See {IERC721-transferFrom}."
      },
      "transferOwnership(address)": {
        "details": "Transfers ownership of the contract to a new account (`newOwner`). Can only be called by the current owner."
      },
      "unpause()": {
        "details": "This method should be invoked from WEB3 from owner's account to UNPAUSE the smart contract"
      },
      "withdraw()": {
        "details": "This is a V2 method which allows owner to withdraw ethers"
      }
    },
    "version": 1
  },
  "userdoc": {
    "kind": "user",
    "methods": {
      "tokensOfOwner(address)": {
        "notice": "Returns a list of all NFT IDs assigned to an address."
      }
    },
    "version": 1
  }
}